:100000000C942A000C943C000C943C000C943C0092
:100010000C943C000C943C000C943C000C943C0070
:100020000C943C000C943C000C94E2030C943C00B7
:100030000C943C000C943C000C943C000C943C0050
:100040000C943C000C943C000C943C000C943C0040
:100050000C943C0011241FBECFE5D8E0DEBFCDBF1D
:1000600010E0A0E6B0E001C01D92A536B107E1F7AF
:100070000E94F2030C9414040C940000DF93CF93BD
:10008000CDB7DEB7A6E2B0E0E6E2F0E080818460C2
:100090008C93A6E2B0E0E6E2F0E0808182608C938F
:1000A000A6E2B0E0E6E2F0E0808181608C93A7E216
:1000B000B0E0E7E2F0E080818F778C93A7E2B0E0D8
:1000C000E7E2F0E0808180648C93A7E2B0E0E7E2B1
:1000D000F0E0808180628C93A6E2B0E0E6E2F0E09E
:1000E000808180688C93CF91DF910895DF93CF93C7
:1000F00000D00F92CDB7DEB78B83A7E2B0E0E7E286
:10010000F0E08081807E8C93A7E2B0E0E7E2F0E04F
:1001100090818B81892B8C93A6E2B0E0E6E2F0E03F
:10012000808180648C93E6E2F0E0808182958F701C
:10013000882F90E0817090700097A9F3E4E2F0E0DE
:1001400080818295869586958370882F90E09A832A
:100150008983E5E2F0E08081882F90E0880F991F85
:10016000880F991F9C0189819A81822B932B9A83F6
:10017000898389819A810F900F900F90CF91DF91A1
:100180000895DF93CF9300D000D000D0CDB7DEB775
:100190008A836B834C8319828A81843018F081E0D2
:1001A0008983E0C08B81883018F082E08983DAC0CF
:1001B0008C81882331F08C81813019F083E0898330
:1001C000D1C08A81282F30E03E832D838D819E818E
:1001D0008130910509F443C02D813E8122303105E3
:1001E0002CF48D819E81009771F0BCC02D813E81E1
:1001F0002230310509F45FC08D819E8183309105E5
:1002000009F485C0AFC08C818130A1F4ABE3B0E0CC
:10021000EBE3F0E08081482F8B81282F30E081E0F4
:1002200090E0022E02C0880F991F0A94E2F7842BF7
:100230008C9398C0ABE3B0E0EBE3F0E08081482F13
:100240008B81282F30E081E090E0022E02C0880FE1
:10025000991F0A94E2F7809584238C9383C08C8144
:100260008130A1F4A8E3B0E0E8E3F0E08081482F1A
:100270008B81282F30E081E090E0022E02C0880FB1
:10028000991F0A94E2F7842B8C936CC0A8E3B0E02A
:10029000E8E3F0E08081482F8B81282F30E081E077
:1002A00090E0022E02C0880F991F0A94E2F7809511
:1002B00084238C9357C08C818130A1F4A5E3B0E0F6
:1002C000E5E3F0E08081482F8B81282F30E081E04A
:1002D00090E0022E02C0880F991F0A94E2F7842B47
:1002E0008C9340C0A5E3B0E0E5E3F0E08081482FC7
:1002F0008B81282F30E081E090E0022E02C0880F31
:10030000991F0A94E2F7809584238C932BC08C81EB
:100310008130A1F4A2E3B0E0E2E3F0E08081482F75
:100320008B81282F30E081E090E0022E02C0880F00
:10033000991F0A94E2F7842B8C9314C0A2E3B0E0D7
:10034000E2E3F0E08081482F8B81282F30E081E0CC
:1003500090E0022E02C0880F991F0A94E2F7809560
:1003600084238C93898126960FB6F894DEBF0FBE46
:10037000CDBFCF91DF910895DF93CF9300D000D010
:1003800000D0CDB7DEB78A836B834C8319828A8114
:10039000843018F081E08983E0C08B81883018F0C8
:1003A00082E08983DAC08C81882331F08C818130AE
:1003B00019F083E08983D1C08A81282F30E03E8301
:1003C0002D838D819E818130910509F443C02D815B
:1003D0003E81223031052CF48D819E81009771F091
:1003E000BCC02D813E812230310509F45FC08D8172
:1003F0009E818330910509F485C0AFC08C81813026
:10040000A1F4AAE3B0E0EAE3F0E08081482F8B8119
:10041000282F30E081E090E0022E02C0880F991F63
:100420000A94E2F7842B8C9398C0AAE3B0E0EAE345
:10043000F0E08081482F8B81282F30E081E090E030
:10044000022E02C0880F991F0A94E2F78095842338
:100450008C9383C08C818130A1F4A7E3B0E0E7E303
:10046000F0E08081482F8B81282F30E081E090E000
:10047000022E02C0880F991F0A94E2F7842B8C93F6
:100480006CC0A7E3B0E0E7E3F0E08081482F8B8108
:10049000282F30E081E090E0022E02C0880F991FE3
:1004A0000A94E2F7809584238C9357C08C81813025
:1004B000A1F4A4E3B0E0E4E3F0E08081482F8B8175
:1004C000282F30E081E090E0022E02C0880F991FB3
:1004D0000A94E2F7842B8C9340C0A4E3B0E0E4E3F9
:1004E000F0E08081482F8B81282F30E081E090E080
:1004F000022E02C0880F991F0A94E2F78095842388
:100500008C932BC08C818130A1F4A1E3B0E0E1E3B6
:10051000F0E08081482F8B81282F30E081E090E04F
:10052000022E02C0880F991F0A94E2F7842B8C9345
:1005300014C0A1E3B0E0E1E3F0E08081482F8B81BB
:10054000282F30E081E090E0022E02C0880F991F32
:100550000A94E2F7809584238C93898126960FB6BE
:10056000F894DEBF0FBECDBFCF91DF910895DF932A
:10057000CF93CDB7DEB727970FB6F894DEBF0FBE87
:10058000CDBF8A836B835D834C8319828A818430DB
:1005900018F081E0898376C08B81883018F082E082
:1005A000898370C08A81282F30E03F832E834E815B
:1005B0005F814130510559F18E819F8182309105D3
:1005C00034F42E813F812115310569F05BC04E81E5
:1005D0005F814230510579F18E819F818330910591
:1005E00009F43DC04FC0E9E3F0E08081282F30E0FE
:1005F0008B81882F90E0A90102C0559547958A9577
:10060000E2F7CA018170EC81FD8180833BC0E6E3A3
:10061000F0E08081282F30E08B81882F90E0A901C5
:1006200002C0559547958A95E2F7CA018170EC8121
:10063000FD81808327C0E3E3F0E08081282F30E054
:100640008B81882F90E0A90102C0559547958A9526
:10065000E2F7CA018170EC81FD81808313C0E0E381
:10066000F0E08081282F30E08B81882F90E0A90175
:1006700002C0559547958A95E2F7CA018170EC81D1
:10068000FD818083898127960FB6F894DEBF0FBE67
:10069000CDBFCF91DF910895DF93CF9300D000D0ED
:1006A0000F92CDB7DEB78A836B8319828A8184303B
:1006B00018F081E0898332C08A81282F30E03D83A1
:1006C0002C838C819D8181309105D1F02C813D81DD
:1006D000223031052CF48C819D81009761F01EC081
:1006E0002C813D812230310581F08C819D818330C8
:1006F000910581F013C0EBE3F0E08B8180830EC0A5
:10070000E8E3F0E08B81808309C0E5E3F0E08B81D2
:10071000808304C0E2E3F0E08B81808389810F90C5
:100720000F900F900F900F90CF91DF910895DF936E
:10073000CF9300D000D00F92CDB7DEB78A836B8302
:1007400019828A81843018F081E0898332C08A81DD
:10075000282F30E03D832C838C819D818130910551
:10076000D1F02C813D81223031052CF48C819D818A
:10077000009761F01EC02C813D812230310581F04F
:100780008C819D818330910581F013C0EAE3F0E014
:100790008B8180830EC0E7E3F0E08B81808309C00A
:1007A000E4E3F0E08B81808304C0E1E3F0E08B813F
:1007B000808389810F900F900F900F900F90CF91B1
:1007C000DF9108951F920F920FB60F921124DF93BD
:1007D000CF93CDB7DEB7CF91DF910F900FBE0F90C3
:1007E0001F9018950F931F93DF93CF93CDB7DEB76C
:1007F00080E060E040E00E94BC0181E063E041E015
:100800000E94BC010E943E00E3E5F0E08AE780839D
:100810000CE510E080E00E9476009695879596950D
:0C0820008795F8018083F4CFF894FFCF97
:00000001FF
