:100000000C942A000C9447000C9447000C94470071
:100010000C9447000C9447000C9447000C94C50BBB
:100020000C9447000C9447000C9447000C94470034
:100030000C9447000C9447000C9447000C94470024
:100040000C9447000C9447000C9447000C94470014
:100050000C94470011241FBECFE5D8E0DEBFCDBF12
:1000600010E0A0E6B0E0EAEBFDE302C005900D92DF
:10007000AC36B107D9F713E0ACE6B0E001C01D9291
:10008000A832B107E1F70E94AC080C94DB1E0C9477
:100090000000DF93CF9300D000D000D0CDB7DEB703
:1000A0008A836B834C8319828A81843018F081E0C3
:1000B0008983E0C08B81883018F082E08983DAC0C0
:1000C0008C81882331F08C81813019F083E0898321
:1000D000D1C08A81282F30E03E832D838D819E817F
:1000E0008130910509F443C02D813E8122303105D4
:1000F0002CF48D819E81009771F0BCC02D813E81D2
:100100002230310509F45FC08D819E8183309105D5
:1001100009F485C0AFC08C818130A1F4ABE3B0E0BD
:10012000EBE3F0E08081482F8B81282F30E081E0E5
:1001300090E0022E02C0880F991F0A94E2F7842BE8
:100140008C9398C0ABE3B0E0EBE3F0E08081482F04
:100150008B81282F30E081E090E0022E02C0880FD2
:10016000991F0A94E2F7809584238C9383C08C8135
:100170008130A1F4A8E3B0E0E8E3F0E08081482F0B
:100180008B81282F30E081E090E0022E02C0880FA2
:10019000991F0A94E2F7842B8C936CC0A8E3B0E01B
:1001A000E8E3F0E08081482F8B81282F30E081E068
:1001B00090E0022E02C0880F991F0A94E2F7809502
:1001C00084238C9357C08C818130A1F4A5E3B0E0E7
:1001D000E5E3F0E08081482F8B81282F30E081E03B
:1001E00090E0022E02C0880F991F0A94E2F7842B38
:1001F0008C9340C0A5E3B0E0E5E3F0E08081482FB8
:100200008B81282F30E081E090E0022E02C0880F21
:10021000991F0A94E2F7809584238C932BC08C81DC
:100220008130A1F4A2E3B0E0E2E3F0E08081482F66
:100230008B81282F30E081E090E0022E02C0880FF1
:10024000991F0A94E2F7842B8C9314C0A2E3B0E0C8
:10025000E2E3F0E08081482F8B81282F30E081E0BD
:1002600090E0022E02C0880F991F0A94E2F7809551
:1002700084238C93898126960FB6F894DEBF0FBE37
:10028000CDBFCF91DF910895DF93CF9300D000D001
:1002900000D0CDB7DEB78A836B834C8319828A8105
:1002A000843018F081E08983E0C08B81883018F0B9
:1002B00082E08983DAC08C81882331F08C8181309F
:1002C00019F083E08983D1C08A81282F30E03E83F2
:1002D0002D838D819E818130910509F443C02D814C
:1002E0003E81223031052CF48D819E81009771F082
:1002F000BCC02D813E812230310509F45FC08D8163
:100300009E818330910509F485C0AFC08C81813016
:10031000A1F4AAE3B0E0EAE3F0E08081482F8B810A
:10032000282F30E081E090E0022E02C0880F991F54
:100330000A94E2F7842B8C9398C0AAE3B0E0EAE336
:10034000F0E08081482F8B81282F30E081E090E021
:10035000022E02C0880F991F0A94E2F78095842329
:100360008C9383C08C818130A1F4A7E3B0E0E7E3F4
:10037000F0E08081482F8B81282F30E081E090E0F1
:10038000022E02C0880F991F0A94E2F7842B8C93E7
:100390006CC0A7E3B0E0E7E3F0E08081482F8B81F9
:1003A000282F30E081E090E0022E02C0880F991FD4
:1003B0000A94E2F7809584238C9357C08C81813016
:1003C000A1F4A4E3B0E0E4E3F0E08081482F8B8166
:1003D000282F30E081E090E0022E02C0880F991FA4
:1003E0000A94E2F7842B8C9340C0A4E3B0E0E4E3EA
:1003F000F0E08081482F8B81282F30E081E090E071
:10040000022E02C0880F991F0A94E2F78095842378
:100410008C932BC08C818130A1F4A1E3B0E0E1E3A7
:10042000F0E08081482F8B81282F30E081E090E040
:10043000022E02C0880F991F0A94E2F7842B8C9336
:1004400014C0A1E3B0E0E1E3F0E08081482F8B81AC
:10045000282F30E081E090E0022E02C0880F991F23
:100460000A94E2F7809584238C93898126960FB6AF
:10047000F894DEBF0FBECDBFCF91DF910895DF931B
:10048000CF93CDB7DEB727970FB6F894DEBF0FBE78
:10049000CDBF8A836B835D834C8319828A818430CC
:1004A00018F081E0898376C08B81883018F082E073
:1004B000898370C08A81282F30E03F832E834E814C
:1004C0005F814130510559F18E819F8182309105C4
:1004D00034F42E813F812115310569F05BC04E81D6
:1004E0005F814230510579F18E819F818330910582
:1004F00009F43DC04FC0E9E3F0E08081282F30E0EF
:100500008B81882F90E0A90102C0559547958A9567
:10051000E2F7CA018170EC81FD8180833BC0E6E394
:10052000F0E08081282F30E08B81882F90E0A901B6
:1005300002C0559547958A95E2F7CA018170EC8112
:10054000FD81808327C0E3E3F0E08081282F30E045
:100550008B81882F90E0A90102C0559547958A9517
:10056000E2F7CA018170EC81FD81808313C0E0E372
:10057000F0E08081282F30E08B81882F90E0A90166
:1005800002C0559547958A95E2F7CA018170EC81C2
:10059000FD818083898127960FB6F894DEBF0FBE58
:1005A000CDBFCF91DF910895DF93CF9300D000D0DE
:1005B0000F92CDB7DEB78A836B8319828A8184302C
:1005C00018F081E0898332C08A81282F30E03D8392
:1005D0002C838C819D8181309105D1F02C813D81CE
:1005E000223031052CF48C819D81009761F01EC072
:1005F0002C813D812230310581F08C819D818330B9
:10060000910581F013C0EBE3F0E08B8180830EC095
:10061000E8E3F0E08B81808309C0E5E3F0E08B81C3
:10062000808304C0E2E3F0E08B81808389810F90B6
:100630000F900F900F900F90CF91DF910895DF935F
:10064000CF9300D000D00F92CDB7DEB78A836B83F3
:1006500019828A81843018F081E0898332C08A81CE
:10066000282F30E03D832C838C819D818130910542
:10067000D1F02C813D81223031052CF48C819D817B
:10068000009761F01EC02C813D812230310581F040
:100690008C819D818330910581F013C0EAE3F0E005
:1006A0008B8180830EC0E7E3F0E08B81808309C0FB
:1006B000E4E3F0E08B81808304C0E1E3F0E08B8130
:1006C000808389810F900F900F900F900F90CF91A2
:1006D000DF910895DF93CF9300D0CDB7DEB78BE0E5
:1006E00090E00E94AF069A83898389819A8100975E
:1006F00049F0E981FA811182108289819A810296FA
:100700000E942B0789819A810F900F90CF91DF91E2
:100710000895DF93CF93CDB7DEB760970FB6F89407
:10072000DEBF0FBECDBF9A8789877C876B875E87C8
:100730004D87388B2F8789859A859C838B83198277
:100740000E94DA15EB81FC818081918198878F83EB
:1007500089859A852B853C85B9010E9460052F818A
:1007600038858B859C85282B392B8D859E85282364
:1007700039238D859E8528173907C9F42F8138853F
:100780008B859C85822B932B9E838D83EB81FC81B3
:10079000208131818D859E8580959095822393233C
:1007A000EB81FC8191838083188A1F861EC08F8510
:1007B0009889009791F08B819C81BC016E5F7F4F7F
:1007C0008D859E859C0135604F855889CB01B90187
:1007D0000E944A181E821D8208C0EB81FC81808124
:1007E00091819E838D8381E089830E94E6158A83AF
:1007F0008F859889009709F43AC08A81882311F47B
:100800000E94B30A0E949D1A9E838D838D819E81D2
:1008100080709270009731F50FB6F8940F92EB81CB
:10082000FC81808191819E838D832D813E818D8588
:100830009E85282339238D859E852817390771F4D5
:10084000EB81FC81208131818D859E8580959095FD
:1008500082239323EB81FC81918380830F900FBED1
:1008600081E089838D819E8190709E838D838D81AF
:100870009E8160960FB6F894DEBF0FBECDBFCF91BC
:10088000DF9108950F931F93DF93CF93CDB7DEB71A
:1008900063970FB6F894DEBF0FBECDBF9D878C87E0
:1008A0007F876E87488B298B1B8B0A8B8C859D8558
:1008B0009B878A871F821E821B820E94DA15EA8527
:1008C000FB85808191819A83898389819A812E8594
:1008D0003F85B90149890E947D068D838D818823DA
:1008E000C1F089819A81998788871B8A1A8A8889A9
:1008F0008823E9F1EA85FB85208131818E859F85FA
:100900008095909582239323EA85FB85918380834C
:100910002EC08A899B89009739F489819A819987A9
:10092000888781E08B8323C08889882329F08E8182
:100930009F8191609F838E838989882329F08E818E
:100940009F8194609F838E838A859B85BC016E5FA7
:100950007F4F2E853F858E819F81282B392B4A8999
:100960005B89CB01B9010E944A18198618860E943A
:10097000E6158C838A899B89009709F43CC08C8199
:10098000882311F40E94B30A0E949D1A99878887D0
:100990008885998580709270009741F50FB6F8941C
:1009A0000F92EA85FB858081918199878887888568
:1009B00099852E853F85B90149890E947D06882346
:1009C00089F08889882371F0EA85FB85208131814F
:1009D0008E859F858095909582239323EA85FB855C
:1009E0009183808381E08B830F900FBE88859985EA
:1009F0009070998788878885998563960FB6F89453
:100A0000DEBF0FBECDBFCF91DF911F910F91089533
:100A1000DF93CF93CDB7DEB728970FB6F894DEBF3C
:100A20000FBECDBF9E838D8378876F838D819E811E
:100A30009C838B830FB6F8940F92EB81FC818081AD
:100A400091819A838983EB81FC81208131818F811F
:100A500098858095909582239323EB81FC819183E7
:100A600080830F900FBE89819A8128960FB6F894E3
:100A7000DEBF0FBECDBFCF91DF910895DF93CF933F
:100A8000CDB7DEB727970FB6F894DEBF0FBECDBF48
:100A90009F838E838E819F819C838B831D82EB81BC
:100AA000FC81808191819A83898389819A812796AB
:100AB0000FB6F894DEBF0FBECDBFCF91DF91089582
:100AC000DF93CF93CDB7DEB765970FB6F894DEBF4F
:100AD0000FBECDBF9B8B8A8B7D8B6C8B1986188646
:100AE0008A899B899B838A8319828A819B8102964A
:100AF0009B878A878A859B8503969D878C870E9422
:100B0000DA15EA85FB8585819681998B888BEA8148
:100B1000FB81208131818C899D89822B932BEA81F5
:100B2000FB819183808359C0E889F989828193810F
:100B30009F878E87E889F989808191819F838E8341
:100B400019828E819F8180709D838C838E819F818D
:100B500090709F838E838C819D81807094700097AC
:100B600069F4EA81FB81208131818E819F8182231A
:100B70009323009791F081E089830FC0EA81FB8184
:100B8000208131818E819F81282339238E819F810D
:100B90002817390711F481E0898389818823C9F0F6
:100BA0008C819D8180709170009741F08885998536
:100BB0002E813F81822B932B99878887EA81FB8145
:100BC000808191819C01326088899989B9010E9454
:100BD000E5188E859F85998B888B288939898C8526
:100BE0009D852817390709F09FCFEA81FB81208175
:100BF0003181888599858095909582239323EA8118
:100C0000FB81918380830E94E615EA81FB818081CC
:100C1000918165960FB6F894DEBF0FBECDBFCF9120
:100C2000DF910895DF93CF9300D000D000D0CDB7EF
:100C3000DEB79E838D838D819E819C838B838B8188
:100C40009C8102969A8389830E94DA1508C0E98103
:100C5000FA818581968160E072E00E94E518E98161
:100C6000FA818081882399F78B819C810E940507F6
:100C70000E94E61526960FB6F894DEBF0FBECDBFD4
:100C8000CF91DF910895DF93CF9300D000D000D0B3
:100C9000CDB7DEB79A8389834B835C836D837E8374
:100CA00089819A812B813C81B9010E946005269639
:100CB0000FB6F894DEBF0FBECDBFCF91DF91089580
:100CC000DF93CF9300D000D000D0CDB7DEB79A83AA
:100CD00089834B835C836D837E8389819A812B8199
:100CE0003C81B9010E94080526960FB6F894DEBF34
:100CF0000FBECDBFCF91DF910895DF93CF9300D08A
:100D000000D000D0CDB7DEB79B838A837D836C8310
:100D10004E8319828E81882359F48A819B812C818C
:100D20003D8182239323009781F081E089830DC068
:100D30002A813B818C819D81282339238C819D814F
:100D40002817390711F481E08983898126960FB627
:100D5000F894DEBF0FBECDBFCF91DF910895DF9332
:100D6000CF9300D000D0CDB7DEB79C838B831A829F
:100D700019820E94DA1580916E0090916F000097A1
:100D800031F481E790E090936F0080936E00809142
:100D90006C0090916D002B813C81820F931F22E0AB
:100DA0008735920738F520916C0030916D008B816A
:100DB0009C81280F391F80916C0090916D008217E3
:100DC0009307C0F420916E0030916F0080916C0009
:100DD00090916D00820F931F9A83898320916C00FC
:100DE00030916D008B819C81820F931F90936D00D9
:100DF00080936C000E94E61589819A810F900F9074
:100E00000F900F90CF91DF910895DF93CF9300D093
:100E1000CDB7DEB79A8389830F900F90CF91DF9182
:100E20000895DF93CF93CDB7DEB710926D00109287
:100E30006C00CF91DF910895DF93CF93CDB7DEB7EC
:100E400020916C0030916D0087E592E0821B930B3E
:100E5000CF91DF910895DF93CF9300D0CDB7DEB768
:100E60009A83898389819A810396E981FA819283A1
:100E70008183E981FA818FEF9FEF94838383898156
:100E80009A810396E981FA819683858389819A8183
:100E90000396E981FA8190878783E981FA8110823C
:100EA0000F900F90CF91DF910895DF93CF9300D0F3
:100EB000CDB7DEB79A838983E981FA8111861086DE
:100EC0000F900F90CF91DF910895DF93CF9300D0D3
:100ED00000D000D0CDB7DEB79C838B837E836D833B
:100EE000EB81FC81818192819A838983ED81FE81EE
:100EF00089819A8193838283E981FA8184819581B2
:100F0000ED81FE8195838483E981FA810480F581F6
:100F1000E02D8D819E8193838283E981FA818D8189
:100F20009E8195838483ED81FE818B819C81918755
:100F30008087EB81FC8180818F5FEB81FC818083E6
:100F400026960FB6F894DEBF0FBECDBFCF91DF91CE
:100F50000895DF93CF93CDB7DEB728970FB6F894F7
:100F6000DEBF0FBECDBF9E838D8378876F83EF81F9
:100F7000F885808191819A83898389819A812FEF75
:100F80008F3F920739F4ED81FE81878190859C83A4
:100F90008B8318C08D819E8103969C838B8306C0B2
:100FA000EB81FC81828193819C838B83EB81FC812B
:100FB0000280F381E02D2081318189819A8182171D
:100FC000930770F7EB81FC8182819381EF81F88533
:100FD00093838283EF81F8850280F381E02D8F81F6
:100FE000988595838483EF81F8858B819C81958397
:100FF0008483EB81FC818F81988593838283EF8149
:10100000F8858D819E8191878087ED81FE81808129
:101010008F5FED81FE81808328960FB6F894DEBF46
:101020000FBECDBFCF91DF910895DF93CF9300D056
:1010300000D0CDB7DEB79C838B83EB81FC818085AC
:1010400091859A838983EB81FC81A281B381EB81B5
:10105000FC818481958115969C938E931497EB81E6
:10106000FC81A481B581EB81FC81828193811396FF
:101070009C938E931297E981FA81218132818B8131
:101080009C812817390741F4EB81FC81848195818B
:10109000E981FA8192838183EB81FC81118610863C
:1010A000E981FA8180818150E981FA818083E98137
:1010B000FA8180810F900F900F900F90CF91DF9168
:1010C0000895DF93CF9300D0CDB7DEB79A8389839D
:1010D0009091C80281E089278093C8029091C8024C
:1010E00082E060E0492F0E94490088EE93E00E9470
:1010F0007A15EECFDF93CF9300D0CDB7DEB79A83CA
:1011000089839091C90281E089278093C9029091D7
:10111000C90282E061E0492F0E94490080ED97E01A
:101120000E947A15EECFDF93CF9300D0CDB7DEB714
:101130009A8389839091CA0281E089278093CA02A9
:101140009091CA0282E062E0492F0E94490088EB38
:101150009BE00E947A15EECFEF92FF920F93DF9300
:10116000CF93CDB7DEB782E060E041E00E9444015A
:1011700082E061E041E00E94440182E062E041E0FF
:101180000E94440181E698E020E630E0B90145E59F
:1011900050E020E030E001E0EE24FF240E94EA125B
:1011A0008AE798E020E630E0B90145E550E020E02C
:1011B00030E002E0EE24FF240E94EA1283E998E086
:1011C00020E630E0B90145E550E020E030E003E002
:1011D000EE24FF240E94EA120E949C15CF91DF9119
:1011E0000F91FF90EF900895DF93CF93CDB7DEB7C7
:1011F00028970FB6F894DEBF0FBECDBF9C838B83BC
:101200007E836D8358874F83EB81FC8181E18083EE
:101210008B819C8101979C838B83EB81FC8182E293
:1012200080838B819C8101979C838B83EB81FC81E4
:1012300083E380838B819C8101979C838B838D8149
:101240009E819A8389838981EB81FC8180838B8154
:101250009C8101979C838B8389819A81892F99270F
:101260009A8389838981EB81FC8180838B819C8136
:1012700001979C838B83EB81FC8110828B819C8105
:1012800001979C838B83EB81FC8180E880838B8139
:101290009C8101979C838B83EB81FC8110828B81E5
:1012A0009C8101979C838B83EB81FC8182E080830E
:1012B0008B819C8101979C838B83EB81FC8183E0F4
:1012C00080838B819C8101979C838B83EB81FC8144
:1012D00084E080838B819C8101979C838B83EB814D
:1012E000FC8185E080838B819C8101979C838B832B
:1012F000EB81FC8186E080838B819C8101979C83BC
:101300008B83EB81FC8187E080838B819C810197BB
:101310009C838B83EB81FC8188E080838B819C8123
:1013200001979C838B83EB81FC8189E080838B8197
:101330009C8101979C838B83EB81FC8180E180837E
:101340008B819C8101979C838B83EB81FC8181E164
:1013500080838B819C8101979C838B83EB81FC81B3
:1013600082E180838B819C8101979C838B83EB81BD
:10137000FC8183E180838B819C8101979C838B839B
:10138000EB81FC8184E180838B819C8101979C832C
:101390008B83EB81FC8185E180838B819C8101972C
:1013A0009C838B83EB81FC8186E180838B819C8194
:1013B00001979C838B83EB81FC8187E180838B8108
:1013C0009C8101979C838B83EB81FC8188E18083E6
:1013D0008B819C8101979C838B83EB81FC8189E1CC
:1013E00080838B819C8101979C838B83EB81FC8123
:1013F00080E280838B819C8101979C838B83EB812E
:10140000FC8181E280838B819C8101979C838B830B
:10141000EB81FC8182E280838B819C8101979C839C
:101420008B83EB81FC8183E280838B819C8101979C
:101430009C838B838F8198859A8389838981EB81B3
:10144000FC8180838B819C8101979C838B83898124
:101450009A81892F99279A8389838981EB81FC81DD
:1014600080838B819C8101979C838B83EB81FC81A2
:1014700086E280838B819C8101979C838B83EB81A7
:10148000FC8187E280838B819C8101979C838B8385
:10149000EB81FC8188E280838B819C8101979C8316
:1014A0008B83EB81FC8189E280838B819C81019716
:1014B0009C838B83EB81FC8180E380838B819C8187
:1014C00001979C838B83EB81FC8181E380838B81FB
:1014D0009C8101979C838B838B819C8128960FB67E
:1014E000F894DEBF0FBECDBFCF91DF910895DF939B
:1014F000CF93CDB7DEB70E94690BA091CB02B0911C
:10150000CC02CD91CDBFDD91DEBFFF91EF91DF9198
:10151000CF91BF91AF919F918F917F916F915F918B
:101520004F913F912F911F910F91FF90EF90DF907E
:10153000CF90BF90AF909F908F907F906F905F9073
:101540004F903F902F901F900F900FBE0F900895D7
:1015500081E0CF91DF910895DF93CF93CDB7DEB7D0
:10156000CF91DF9108950F920FB6F8940F921F92CA
:1015700011242F923F924F925F926F927F928F929F
:101580009F92AF92BF92CF92DF92EF92FF920F9312
:101590001F932F933F934F935F936F937F938F93FB
:1015A0009F93AF93BF93CF93DF93EF93FF93A0915C
:1015B000CB02B091CC020DB60D920EB60D920E94E8
:1015C000BB17A091CB02B091CC02CD91CDBFDD91E4
:1015D000DEBFFF91EF91DF91CF91BF91AF919F91CE
:1015E0008F917F916F915F914F913F912F911F91BB
:1015F0000F91FF90EF90DF90CF90BF90AF909F90B2
:101600008F907F906F905F904F903F902F901F90A2
:101610000F900FBE0F9008950F920FB6F8940F928F
:101620001F9211242F923F924F925F926F927F925E
:101630008F929F92AF92BF92CF92DF92EF92FF92E2
:101640000F931F932F933F934F935F936F937F93CA
:101650008F939F93AF93BF93CF93DF93EF93FF93BA
:10166000A091CB02B091CC020DB60D920EB60D92A8
:101670000E94D616882311F00E94BB17A091CB02BE
:10168000B091CC02CD91CDBFDD91DEBFFF91EF9146
:10169000DF91CF91BF91AF919F918F917F916F918A
:1016A0005F914F913F912F911F910F91FF90EF907C
:1016B000DF90CF90BF90AF909F908F907F906F9072
:1016C0005F904F903F902F901F900F900FBE0F9004
:1016D0000895DF93CF9300D000D000D0CDB7DEB710
:1016E00080E49FE1A0E0B0E08B839C83AD83BE8368
:1016F0008B819C81AD81BE81689415F8B695A795C4
:10170000979587951694D1F78B839C83AD83BE8381
:101710008B819C81AD81BE810197A109B1098B8329
:101720009C83AD83BE838B8189838B819C81AD81BA
:10173000BE81892F9A2FAB2FBB278B839C83AD83D0
:10174000BE838B818A83EBE4F0E08A818083EAE4C4
:10175000F0E0898180838BE08983EEE4F0E0898189
:101760008083E9E5F0E080818983898180618983D4
:10177000E9E5F0E08981808326960FB6F894DEBF14
:101780000FBECDBFCF91DF9108950E940C0B18952D
:10179000DF93CF9300D000D00F92CDB7DEB79C83FC
:1017A0008B836D838B819C819A8389830FB6F89498
:1017B0000F92E981FA8140815181E981FA81838D1B
:1017C000282F30E0E981FA81848D882F90E0BC01D8
:1017D000269FC001279F900D369F900D1124840FE6
:1017E000951FE981FA8195838483E981FA81128EBC
:1017F000E981FA8180819181E981FA8193838283F1
:10180000E981FA8140815181E981FA81838D882FB4
:1018100090E09C0121503040E981FA81848D882F2D
:1018200090E0BC01269FC001279F900D369F900D30
:101830001124840F951FE981FA8197838683E981BA
:10184000FA818FEF858FE981FA818FEF868F8D8105
:10185000882379F4E981FA8180858823A1F0898140
:101860009A8108960E947A18882369F00E94B30A28
:101870000AC089819A8108960E942B0789819A81E2
:1018800041960E942B070F900FBE81E00F900F90A2
:101890000F900F900F90CF91DF9108950F931F93AA
:1018A000DF93CF93CDB7DEB729970FB6F894DEBF9D
:1018B0000FBECDBF8F83688749878885882319F439
:1018C0001C821B8210C08F81282F30E08885882FD2
:1018D00090E0AC01249FC001259F900D349F900D96
:1018E00011249C838B838B819C814F960E94AF0631
:1018F0009E838D838D819E810097A1F08D819E8135
:101900009A83898389819A814F969A8389832981D1
:101910003A81ED81FE818F816885A90129858F013A
:101920000E949F0C8D819E8129960FB6F894DEBF90
:101930000FBECDBFCF91DF911F910F9108950F93EF
:101940001F93DF93CF93CDB7DEB727970FB6F894E9
:10195000DEBF0FBECDBF89836A835C834B832D833B
:101960001F830E838A81882339F48E819F81EE81C3
:10197000FF819183808306C08B819C81EE81FF81F2
:1019800091838083EE81FF818981838FEE81FF8146
:101990008A81848F8E819F8161E00E94C80B279687
:1019A0000FB6F894DEBF0FBECDBFCF91DF911F9170
:1019B0000F910895DF93CF93CDB7DEB72F970FB672
:1019C000F894DEBF0FBECDBF998788877B876A8773
:1019D0005D874C872E871C82888599859A838983A9
:1019E0000FB6F8940F92E981FA81928DE981FA811C
:1019F000838D981718F08E85823011F589819A8130
:101A00002A853B85B9014E850E942C118B83E98183
:101A1000FA818189882351F089819A8141960E94B7
:101A20007A18882341F00E94B30A05C08B8188236D
:101A300011F00E94B30A0F900FBE81E08F875CC047
:101A40008C859D85009721F40F900FBE1F8654C092
:101A50008C81882331F4CE0105960E94601981E0C3
:101A60008C830F900FBE0E94DA150FB6F8940F9278
:101A7000E981FA81858D8F3F19F4E981FA81158E0C
:101A8000E981FA81868D8F3F19F4E981FA81168EFA
:101A90000F900FBECE0105969E01245F3F4FB90106
:101AA0000E947919882309F589819A810E94A812D8
:101AB0008823A1F089819A8108962C853D85B901FA
:101AC0000E94281889819A810E9419120E94E615A5
:101AD000882309F085CF0E94B30A82CF89819A8139
:101AE0000E9419120E94E6157BCF89819A810E947B
:101AF00019120E94E6151F868F852F960FB6F8944F
:101B0000DEBF0FBECDBFCF91DF910895DF93CF939E
:101B1000CDB7DEB72C970FB6F894DEBF0FBECDBFA2
:101B20009F838E83798768875B874A872C878E811E
:101B30009F819B838A831C82EA81FB81928DEA814B
:101B4000FB81838D981718F08C85823061F5EA81CE
:101B5000FB81868D89838A819B8128853985B9019E
:101B60004C850E942C1189818F3FA9F4EA81FB8169
:101B700081898823A9F08A819B8141960E947A18E5
:101B8000882371F08A859B85009751F0EA85FB8553
:101B900081E0808305C089818F5FEA81FB81868F28
:101BA00081E08D8301C01D828D812C960FB6F89443
:101BB000DEBF0FBECDBFCF91DF910895DF93CF93EE
:101BC000CDB7DEB72A970FB6F894DEBF0FBECDBFF4
:101BD00098878F837A8769878F8198859C838B8389
:101BE0001D82EB81FC81828D8A83EB81FC81938D48
:101BF0008A81891748F5EB81FC81868D89838A81EA
:101C00008F5FEB81FC81828F89818F3FA9F4EB810B
:101C1000FC8181898823A9F08B819C8141960E9457
:101C20007A18882371F089859A85009751F0E985A3
:101C3000FA8581E0808305C089818F5FEB81FC811B
:101C4000868F81E08E8301C01E828E812A960FB618
:101C5000F894DEBF0FBECDBFCF91DF910895DF9323
:101C6000CF93CDB7DEB72E970FB6F894DEBF0FBE79
:101C7000CDBF998788877B876A875D874C871C8261
:101C8000888599859B838A830FB6F8940F92EA81A1
:101C9000FB81828D898389818823F9F08A819B81E8
:101CA0002A853B85B9010E94D21189818150EA8140
:101CB000FB81828FEA81FB818085882349F08A81BC
:101CC0009B8108960E947A18882311F00E94B30A1B
:101CD0000F900FBE81E08E8763C08C859D85009735
:101CE00021F40F900FBE1E865BC08C81882331F4D7
:101CF000CE0105960E94601981E08C830F900FBE83
:101D00000E94DA150FB6F8940F92EA81FB81858D57
:101D10008F3F19F4EA81FB81158EEA81FB81868D64
:101D20008F3F19F4EA81FB81168E0F900FBECE0112
:101D300005969E01245F3F4FB9010E9479198823BF
:101D400009F58A819B810E946C128823A1F08A8107
:101D50009B8141962C853D85B9010E9428188A8176
:101D60009B810E9419120E94E615882309F08CCFEE
:101D70000E94B30A89CF8A819B810E9419120E9416
:101D8000E61582CF8A819B810E9419120E94E61576
:101D90008A819B810E946C12882309F475CF1E866C
:101DA0008E852E960FB6F894DEBF0FBECDBFCF91B5
:101DB000DF910895DF93CF93CDB7DEB72C970FB6A1
:101DC000F894DEBF0FBECDBF998788877B876A876F
:101DD0001C82888599859B838A830FB6F8940F921D
:101DE000EA81FB81828D898389818823C1F0898181
:101DF0008150EA81FB81828FEA81FB818085882383
:101E000049F08A819B8108960E947A18882311F0F4
:101E10000E94B30A0F900FBE81E08C8763C08A8551
:101E20009B85009721F40F900FBE1C865BC08C81B0
:101E3000882331F4CE0105960E94601981E08C83DD
:101E40000F900FBE0E94DA150FB6F8940F92EA8138
:101E5000FB81858D8F3F19F4EA81FB81158EEA8124
:101E6000FB81868D8F3F19F4EA81FB81168E0F90DE
:101E70000FBECE0105969E01265F3F4FB9010E941D
:101E80007919882309F58A819B810E946C12882325
:101E9000A1F08A819B8141962A853B85B9010E94E8
:101EA00028188A819B810E9419120E94E6158823B6
:101EB00009F093CF0E94B30A90CF8A819B810E9440
:101EC00019120E94E61589CF8A819B810E941912FE
:101ED0000E94E6158A819B810E946C12882309F476
:101EE0007CCF1C868C852C960FB6F894DEBF0FBE77
:101EF000CDBFCF91DF910895DF93CF93CDB7DEB7FC
:101F000060970FB6F894DEBF0FBECDBF9B878A8760
:101F10007D876C875F874E871E828A859B859B8322
:101F20008A830FB6F8940F92EA81FB81828D8983B0
:101F30008981882331F1EA81FB81868197819D83A4
:101F40008C838A819B812C853D85B9010E94D211A9
:101F5000EA81FB818C819D8197838683EA81FB8165
:101F60008189882349F08A819B8141960E947A1851
:101F7000882311F00E94B30A0F900FBE81E0888B76
:101F800063C08E859F85009721F40F900FBE188A3D
:101F90005BC08E81882331F4CE0107960E946019C0
:101FA00081E08E830F900FBE0E94DA150FB6F89471
:101FB0000F92EA81FB81858D8F3F19F4EA81FB81C5
:101FC000158EEA81FB81868D8F3F19F4EA81FB81B2
:101FD000168E0F900FBECE0107969E01225F3F4FD7
:101FE000B9010E947919882309F58A819B810E9491
:101FF0006C128823A1F08A819B8141962E853F85B2
:10200000B9010E9428188A819B810E9419120E949E
:10201000E615882309F085CF0E94B30A82CF8A8112
:102020009B810E9419120E94E6157BCF8A819B81B9
:102030000E9419120E94E6158A819B810E946C12EF
:10204000882309F46ECF188A888960960FB6F894B1
:10205000DEBF0FBECDBFCF91DF910895DF93CF9349
:10206000CDB7DEB72C970FB6F894DEBF0FBECDBF4D
:1020700098878F837A8769875C874B878F8198855C
:102080009C838B831D82EB81FC81828D8A838A8174
:10209000882381F1EB81FC81858D89838B819C81F3
:1020A00029853A85B9010E94D2118A818150EB813C
:1020B000FC81828F89818F3FA9F4EB81FC8180852F
:1020C0008823A9F08B819C8108960E947A18882326
:1020D00071F08B859C85009751F0EB85FC8581E044
:1020E000808305C089818F5FEB81FC81858F81E0D2
:1020F0008E8301C01E828E812C960FB6F894DEBFAF
:102100000FBECDBFCF91DF910895DF93CF93CDB7B1
:10211000DEB72A970FB6F894DEBF0FBECDBF988703
:102120008F837A8769878F8198859A8389831D82B7
:10213000E981FA81828D8823B1F0E981FA81868173
:1021400097819C838B8389819A8129853A85B901FE
:102150000E94D211E981FA818B819C8197838683C9
:1021600081E08E8301C01E828E812A960FB6F8947C
:10217000DEBF0FBECDBFCF91DF910895DF93CF9328
:1021800000D00F92CDB7DEB79B838A830FB6F89449
:102190000F92EA81FB81828D89830F900FBE898126
:1021A0000F900F900F90CF91DF910895DF93CF9311
:1021B00000D000D00F92CDB7DEB79D838C838C8189
:1021C0009D819A8389830FB6F8940F92E981FA81F1
:1021D000938DE981FA81828D292F281B822F8B8391
:1021E0000F900FBE8B810F900F900F900F900F905C
:1021F000CF91DF910895DF93CF9300D000D00F925D
:10220000CDB7DEB79D838C838C819D819A83898332
:10221000E981FA81828D8B838B810F900F900F90D3
:102220000F900F90CF91DF910895DF93CF9300D05F
:1022300000D0CDB7DEB79C838B838B819C819A8342
:10224000898389819A810E9405070F900F900F90D2
:102250000F90CF91DF910895DF93CF93CDB7DEB785
:1022600027970FB6F894DEBF0FBECDBF9C838B833C
:102270007E836D834F831A82EB81FC81828D8983FB
:10228000EB81FC81848D882309F47DC08F818823B4
:1022900099F5EB81FC8162817381EB81FC81848DF6
:1022A000482F50E02D813E81CB01B9010E94D21E02
:1022B000EB81FC8122813381EB81FC81848D882F2D
:1022C00090E0820F931FEB81FC8193838283EB81EB
:1022D000FC8122813381EB81FC81848195812817E7
:1022E000390708F450C0EB81FC8180819181EB813A
:1022F000FC819383828347C0EB81FC816681778177
:10230000EB81FC81848D482F50E02D813E81CB01F3
:10231000B9010E94D21EEB81FC8126813781EB81BD
:10232000FC81848D882F90E0909581959F4F820F3E
:10233000931FEB81FC8197838683EB81FC8126814F
:102340003781EB81FC81808191812817390790F4D6
:10235000EB81FC8124813581EB81FC81848D882F88
:1023600090E0909581959F4F820F931FEB81FC81A8
:10237000978386838F81823031F48981882319F095
:1023800089818150898389818F5FEB81FC81828F74
:102390008A8127960FB6F894DEBF0FBECDBFCF91CE
:1023A000DF910895DF93CF9300D000D0CDB7DEB793
:1023B0009A8389837C836B83E981FA81848D882366
:1023C00089F1E981FA8126813781E981FA81848D59
:1023D000882F90E0820F931FE981FA81978386838B
:1023E000E981FA8126813781E981FA8184819581A9
:1023F0002817390740F0E981FA8180819181E981CC
:10240000FA8197838683E981FA8146815781E98140
:10241000FA81848D282F30E08B819C81BA01A9013B
:102420000E94D21E0F900F900F900F90CF91DF91CE
:102430000895DF93CF9300D000D0CDB7DEB79C8353
:102440008B830FB6F8940F92EB81FC81868D8A8383
:1024500011C0EB81FC818189882379F08B819C817B
:1024600041960E947A18882311F00E94DC198A8113
:1024700081508A838A81181664F3EB81FC818FEF87
:10248000868F0F900FBE0FB6F8940F92EB81FC81F0
:10249000858D898311C0EB81FC818085882379F04B
:1024A0008B819C8108960E947A18882311F00E94E3
:1024B000DC198981815089838981181664F3EB8145
:1024C000FC818FEF858F0F900FBE0F900F900F90B4
:1024D0000F90CF91DF910895DF93CF9300D00F92AB
:1024E000CDB7DEB79B838A830FB6F8940F92EA814B
:1024F000FB81828D882319F481E0898301C01982D0
:102500000F900FBE89810F900F900F90CF91DF91A8
:102510000895DF93CF9300D000D00F92CDB7DEB7F0
:102520009D838C838C819D819A838983E981FA8143
:10253000828D882319F481E08B8301C01B828B81FB
:102540000F900F900F900F900F90CF91DF91089503
:10255000DF93CF9300D00F92CDB7DEB79B838A83F2
:102560000FB6F8940F92EA81FB81928DEA81FB818C
:10257000838D981719F481E0898301C019820F9027
:102580000FBE89810F900F900F90CF91DF9108952A
:10259000DF93CF9300D000D00F92CDB7DEB79D83ED
:1025A0008C838C819D819A838983E981FA81928DC4
:1025B000E981FA81838D981719F481E08B8301C03A
:1025C0001B828B810F900F900F900F900F90CF91E7
:1025D000DF9108958F929F92AF92BF92CF92DF9238
:1025E000EF92FF920F931F93DF93CF93CDB7DEB798
:1025F00060970FB6F894DEBF0FBECDBF9F838E836A
:10260000798768875B874A873D872C870E87F88A9A
:10261000EF868A859B850E94AF069A83898389818C
:102620009A810097B1F086E290E00E94AF069D8308
:102630008C838C819D81009739F0EC81FD818981AB
:102640009A81908F878B07C089819A810E940507A4
:1026500002C01D821C828C819D810097E9F08A85D1
:102660009B859C0140E050E08E819F816885798543
:10267000EC85FD85AF85B889AC80BD808F01EE8487
:102680006D01882499240E9462138C819D810E948F
:102690001E1481E08B8302C08FEF8B838B81609649
:1026A0000FB6F894DEBF0FBECDBFCF91DF911F9163
:1026B0000F91FF90EF90DF90CF90BF90AF909F90E1
:1026C0008F9008958F929F92AF92BF92CF92DF9298
:1026D000EF920F931F93DF93CF93CDB7DEB764973D
:1026E0000FB6F894DEBF0FBECDBF9D838C837F8372
:1026F0006E83288739874A875B871D870C87EE861C
:10270000D88ACF86BA8AA98A9C8A8B8AE989FA896B
:102710002789308D888599850197820F931F9B8328
:102720008A838E819F81009751F1198221C089810E
:10273000482F50E08981282F30E08E819F81FC0155
:10274000E20FF31F208189899A89840F951FFC016C
:10275000799620838981282F30E08E819F81FC012A
:10276000E20FF31F8081882331F089818F5F898395
:1027700089818830E0F2E989FA8910A203C0E989E9
:10278000FA89118E8E85843010F083E08E87E98976
:10279000FA898E85868B89899A8902960E945507C7
:1027A00089899A890C960E945507E989FA8989894D
:1027B0009A89918780878E85282F30E084E090E089
:1027C000821B930BE989FA8995878487E989FA89BD
:1027D00089899A89938B828BE989FA8911A212A23D
:1027E00013A214A2E989FA8915A28A819B812C81FE
:1027F0003D814C855D85B9010E94F408E989FA891B
:10280000918380838F859889009731F0EF85F889CF
:1028100089899A899183808364960FB6F894DEBF84
:102820000FBECDBFCF91DF911F910F91EF90DF9041
:10283000CF90BF90AF909F908F900895DF93CF93EC
:1028400000D0CDB7DEB79A8389830FB6F8940F9284
:102850008091CE028F5F8093CE028091CB029091C7
:10286000CC02009769F489819A819093CC0280937D
:10287000CB028091CE028130B9F40E94F01914C0CD
:102880008091D202882381F4E091CB02F091CC02B6
:102890009689E981FA818689891730F089819A8140
:1028A0009093CC028093CB028091D6028F5F80936D
:1028B000D602E981FA8196898091D102891728F49C
:1028C000E981FA8186898093D102E981FA8186893A
:1028D000282F30E0C901880F991F880F991F880F92
:1028E000991F820F931FAC0144525D4F89819A81D9
:1028F0009C012E5F3F4FCA01B9010E9465070F90EE
:102900000FBE8091D202882361F0E091CB02F0915A
:10291000CC029689E981FA818689981710F40E9481
:10292000B30A0F900F90CF91DF910895DF93CF936B
:1029300000D000D000D0CDB7DEB79C838B830FB61C
:10294000F8940F928B819C81009739F48091CB028F
:102950009091CC029E838D8304C08B819C819E8349
:102960008D838D819E819A83898389819A81029644
:102970000E941508E981FA8184899589009729F0D8
:1029800089819A810C960E9415088091D6028F5FEA
:102990008093D6022091CB023091CC0289819A811A
:1029A0008217930781F489819A819C012E5F3F4FA2
:1029B0008FE193E0B9010E9465078091CD028F5F9E
:1029C0008093CD020BC08091CE0281508093CE02C5
:1029D00089819A810E945C1A0E94721A0F900FBE20
:1029E0008091D202882359F02091CB023091CC0201
:1029F00089819A818217930711F40E94B30A26965F
:102A00000FB6F894DEBF0FBECDBFCF91DF91089512
:102A1000DF93CF93CDB7DEB72A970FB6F894DEBF1A
:102A20000FBECDBF98878F837A8769871B820E94EC
:102A3000DA158091CF029091D0029A838983EF8139
:102A4000F8852081318189859A85820F931F9E8325
:102A50008D83EF81F8852081318189819A81821768
:102A6000930798F4EF81F885208131818D819E81D3
:102A700082179307E0F42D813E8189819A81821724
:102A80009307A8F481E08B8312C0EF81F885208141
:102A900031818D819E818217930738F02D813E818F
:102AA00089819A818217930710F481E08B83EF81EB
:102AB000F8858D819E81918380838B81882349F065
:102AC0008D819E8129813A81821B930B60E00E9457
:102AD0006C1E0E94E6158C838C81882311F40E9461
:102AE000B30A2A960FB6F894DEBF0FBECDBFCF91C2
:102AF000DF910895DF93CF9300D00F92CDB7DEB76B
:102B00009B838A8319828A819B81009751F00E945E
:102B1000DA158A819B8160E00E946C1E0E94E61596
:102B200089838981882311F40E94B30A0F900F9042
:102B30000F90CF91DF910895EF92FF920F93DF9363
:102B4000CF930F92CDB7DEB786EE99E127E630E05E
:102B5000E9EDF2E0B90145E550E020E030E000E0C9
:102B60007F010E94EA1289838981813081F4F8947F
:102B70008FEF9FEF9093D8028093D70281E08093EC
:102B8000D2021092D0021092CF020E94770A0F90C8
:102B9000CF91DF910F91FF90EF900895DF93CF9346
:102BA000CDB7DEB7F8941092D2020E94AC0ACF9152
:102BB000DF910895DF93CF93CDB7DEB78091DB022D
:102BC0008F5F8093DB02CF91DF910895DF93CF93E6
:102BD00000D000D0CDB7DEB71C821B821A820FB6A0
:102BE000F8940F928091DB0281508093DB028091F8
:102BF000DB02882309F073C08091CE02882309F498
:102C00006EC045C0E0911B03F0911C038681978143
:102C10009C838B838B819C810C960E9415088B81F1
:102C20009C8102960E941508EB81FC819689809117
:102C3000D102891728F4EB81FC8186898093D10227
:102C4000EB81FC818689282F30E0C901880F991F0C
:102C5000880F991F880F991F820F931FAC01445250
:102C60005D4F8B819C819C012E5F3F4FCA01B90152
:102C70000E946507EB81FC819689E091CB02F0917F
:102C8000CC028689981718F081E08093D402809155
:102C90001603882309F0B6CF8B819C81009711F031
:102CA0000E94721A8091D30289838981882379F0E6
:102CB0000E94D616882319F081E08093D40289817E
:102CC000815089838981882399F71092D30280915A
:102CD000D402882321F081E08A830E94B30A0F90F6
:102CE0000FBE8A810F900F900F900F90CF91DF91C0
:102CF0000895DF93CF9300D0CDB7DEB70FB6F89429
:102D00000F928091CF029091D0029A8389830F9085
:102D10000FBE89819A810F900F90CF91DF91089516
:102D2000DF93CF9300D00F92CDB7DEB71982809199
:102D3000CF029091D0029B838A838A819B810F90DE
:102D40000F900F90CF91DF910895DF93CF93CDB780
:102D5000DEB78091CE02CF91DF910895DF93CF93BC
:102D600000D000D000D0CDB7DEB79C838B838B81A1
:102D70009C81009739F48091CB029091CC029E8384
:102D80008D8304C08B819C819E838D838D819E81E8
:102D90009A83898389819A81499626960FB6F894F9
:102DA000DEBF0FBECDBFCF91DF910895DF93CF93EC
:102DB000CDB7DEB729970FB6F894DEBF0FBECDBFF3
:102DC0001D828091DB02882309F0C0C08091CF0270
:102DD0009091D00201969C838B838B819C819093F0
:102DE000D0028093CF028B819C810097D9F480918F
:102DF0001203909113039A83898380911403909115
:102E00001503909313038093120389819A81909301
:102E10001503809314038091D5028F5F8093D502B0
:102E20000E94721A2091D7023091D8028B819C8126
:102E30008217930708F471C0E0911203F091130315
:102E40008081882339F48FEF9FEF9093D80280938D
:102E5000D70263C0E0911203F09113030580F6815D
:102E6000E02D8681978199878887E885F985828119
:102E700093819F838E832B813C818E819F81281734
:102E8000390738F48E819F819093D8028093D702BE
:102E900044C08885998502960E941508E885F985C1
:102EA00084899589009729F0888599850C960E94D8
:102EB0001508E885F98596898091D102891728F44B
:102EC000E885F98586898093D102E885F985868928
:102ED000282F30E0C901880F991F880F991F880F8C
:102EE000991F820F931FAC0144525D4F88859985CD
:102EF0009C012E5F3F4FCA01B9010E946507E8851A
:102F0000F9859689E091CB02F091CC0286899817D9
:102F100008F492CF81E08D838FCFE091CB02F091C6
:102F2000CC028689282F30E0C901880F991F880FAD
:102F3000991F880F991F820F931FFC01E452FD4FC8
:102F40008081823040F081E08D8305C08091D30282
:102F50008F5F8093D3028091D402882311F081E0A7
:102F60008D838D8129960FB6F894DEBF0FBECDBF3D
:102F7000CF91DF910895DF93CF9300D00F92CDB71B
:102F8000DEB78091DB02882321F081E08093D402B8
:102F900059C01092D4028091D1028B8303C08B81DF
:102FA00081508B838B81282F30E0C901880F991FB6
:102FB000880F991F880F991F820F931FFC01E452FD
:102FC000FD4F8081882359F38B81282F30E0C90180
:102FD000880F991F880F991F880F991F820F931FC1
:102FE00084529D4F9A838983E981FA810180F2811D
:102FF000E02D82819381E981FA8192838183E98145
:10300000FA812181328189819A81039628173907B3
:1030100059F4E981FA810180F281E02D8281938166
:10302000E981FA8192838183E981FA810180F281C9
:10303000E02D868197819093CC028093CB028B8187
:103040008093D1020F900F900F90CF91DF91089550
:10305000DF93CF9300D000D0CDB7DEB79A838983BA
:103060007C836B838091CB029091CC029C01245F86
:103070003F4F89819A81B9010E94A9078B819C8168
:1030800061E00E946C1E0F900F900F900F90CF91F7
:10309000DF910895DF93CF9300D000D000D0CDB75B
:1030A000DEB79A8389837C836B835E834D83E09153
:1030B000CB02F091CC028B819C81906895878487AC
:1030C0008091CB029091CC029C01245F3F4F89817B
:1030D0009A81B9010E9465078D819E8161E00E94FD
:1030E0006C1E26960FB6F894DEBF0FBECDBFCF91F3
:1030F000DF910895DF93CF9300D000D00F92CDB72A
:10310000DEB79D838C83EC81FD810580F681E02D07
:10311000868197819B838A838A819B810C960E94FA
:1031200015088091DB02882361F58A819B810296D4
:103130000E941508EA81FB8196898091D102891746
:1031400028F4EA81FB8186898093D102EA81FB81A0
:103150008689282F30E0C901880F991F880F991F91
:10316000880F991F820F931FAC0144525D4F8A81D3
:103170009B819C012E5F3F4FCA01B9010E946507E8
:103180000AC08A819B819C01245F3F4F86E193E0C6
:10319000B9010E946507EA81FB819689E091CB0223
:1031A000F091CC028689891730F481E0898381E02F
:1031B0008093D40201C0198289810F900F900F90E3
:1031C0000F900F90CF91DF910895DF93CF9300D0B0
:1031D00000D000D0CDB7DEB79C838B837E836D8318
:1031E0008D819E819068EB81FC8191838083EB814E
:1031F000FC81868197819A8389838B819C810E943F
:10320000150889819A8102960E941508E981FA8140
:1032100096898091D102891728F4E981FA818689FB
:103220008093D102E981FA818689282F30E0C90193
:10323000880F991F880F991F880F991F820F931F5E
:10324000AC0144525D4F89819A819C012E5F3F4FB2
:10325000CA01B9010E946507E981FA819689E09166
:10326000CB02F091CC028689891718F481E0809313
:10327000D40226960FB6F894DEBF0FBECDBFCF9115
:10328000DF910895DF93CF9300D0CDB7DEB79A8357
:1032900089830FB6F8940F928091D502E981FA8163
:1032A00080838091CF029091D002E981FA8192834C
:1032B00081830F900FBE0F900F90CF91DF910895F3
:1032C000DF93CF9300D0CDB7DEB79A838983809107
:1032D000D502E981FA8180838091CF029091D0025A
:1032E000E981FA81928381830F900F90CF91DF91D2
:1032F0000895DF93CF93CDB7DEB729970FB6F89433
:10330000DEBF0FBECDBF9F838E83798768870FB6E0
:10331000F8940F928091CF029091D0029C838B837E
:10332000EE81FF81218132818B819C81821B930BF5
:103330009A838983EE81FF8190818091D5029817CD
:1033400061F0EE81FF81218132818B819C81821726
:10335000930718F081E08D8323C0E885F9852081EB
:10336000318189819A8182179307A0F4E885F985D4
:103370002081318189819A81A901481B590BCA0199
:10338000E885F985918380838E819F810E946019F1
:103390001D8206C0E885F9851182108281E08D8347
:1033A0000F900FBE8D8129960FB6F894DEBF0FBE29
:1033B000CDBFCF91DF910895DF93CF93CDB7DEB727
:1033C00081E08093D402CF91DF910895DF93CF9372
:1033D00000D0CDB7DEB79A8389830E942D1AFDCF26
:1033E000DF93CF930F92CDB7DEB7198213C08981D7
:1033F000282F30E0C901880F991F880F991F880F67
:10340000991F820F931F84529D4F0E942B07898121
:103410008F5F89838981843050F380E093E00E943C
:103420002B0789E093E00E942B0786E193E00E943E
:103430002B078FE193E00E942B0780E093E09093AD
:1034400013038093120389E093E090931503809314
:1034500014030F90CF91DF910895DF93CF9300D0A5
:10346000CDB7DEB720C00FB6F8940F92E0912403D9
:10347000F0912503868197819A83898389819A8136
:1034800002960E9415088091CE0281508093CE0250
:103490008091CD0281508093CD020F900FBE898123
:1034A0009A810E945C1A8091CD028823E1F60F90E8
:1034B0000F90CF91DF910895DF93CF9300D0CDB7D8
:1034C000DEB79A838983E981FA818789908D0E948A
:1034D000050789819A810E9405070F900F90CF916F
:1034E000DF910895DF93CF9300D0CDB7DEB7E091A1
:1034F0001203F09113038081882339F48FEF9FEF3B
:103500009093D8028093D70213C0E0911203F091F8
:1035100013030580F681E02D868197819A83898344
:10352000E981FA81828193819093D8028093D702B6
:103530000F900F90CF91DF910895DF93CF9300D03C
:10354000CDB7DEB7E091CB02F091CC0284859585B2
:103550009A838983A091CB02B091CC02E091CB02F7
:10356000F091CC028689282F30E084E090E0821B25
:10357000930B1D969C938E931C9789819A810F9033
:103580000F90CF91DF910895DF93CF93CDB7DEB742
:1035900027970FB6F894DEBF0FBECDBF8D837F8314
:1035A0006E830FB6F8940F92E091CB02F091CC02AB
:1035B00081A192A1A3A1B4A10097A105B10589F4AD
:1035C000E091CB02F091CC0281E085A38E819F81B6
:1035D000009739F08E819F8161E00E946C1E0E94ED
:1035E000B30A0F900FBE0FB6F8940F92E091CB0282
:1035F000F091CC0281A192A1A3A1B4A189839A8365
:10360000AB83BC8389819A81AB81BC810097A10582
:10361000B105D9F08D81882349F0E091CB02F0917A
:10362000CC0211A212A213A214A20FC0E091CB02ED
:10363000F091CC0289819A81AB81BC810197A1096B
:10364000B10981A392A3A3A3B4A3E091CB02F0910B
:10365000CC0215A20F900FBE89819A81AB81BC81EB
:10366000BC01CD0127960FB6F894DEBF0FBECDBFCB
:10367000CF91DF910895EF92FF920F931F93DF9305
:10368000CF93CDB7DEB72D970FB6F894DEBF0FBE40
:10369000CDBF6A837B838C839D832E833F83488742
:1036A00059871B870A87FD86EC860FB6F8940F9220
:1036B000E091CB02F091CC0285A1823049F1E091FA
:1036C000CB02F091CC0221A132A143A154A18A8165
:1036D0009B81AC81BD8180959095A095B09582230A
:1036E0009323A423B52381A392A3A3A3B4A3E0911E
:1036F000CB02F091CC0281E085A38C859D8500975B
:1037000039F08C859D8561E00E946C1E0E94B30A91
:103710000F900FBE0FB6F8940F928A859B85009785
:1037200071F0E091CB02F091CC0281A192A1A3A112
:10373000B4A1EA85FB8580839183A283B383E09162
:10374000CB02F091CC0285A1823011F019821AC00F
:10375000E091CB02F091CC0221A132A143A154A16E
:103760008E819F81A885B98580959095A095B0950B
:1037700082239323A423B52381A392A3A3A3B4A359
:1037800081E08983E091CB02F091CC0215A20F90E9
:103790000FBE89812D960FB6F894DEBF0FBECDBF48
:1037A000CF91DF911F910F91FF90EF9008950F93AC
:1037B0001F93DF93CF93CDB7DEB72F970FB6F89453
:1037C000DEBF0FBECDBF9E838D834F835887698731
:1037D0007A872B871D870C8781E08A838D819E8164
:1037E0009C838B830FB6F8940F928C859D850097F0
:1037F00061F0EB81FC8181A192A1A3A1B4A1EC8530
:10380000FD8580839183A283B383EB81FC8185A1B5
:103810008983EB81FC8182E085A38B85282F30E0B2
:103820003F872E878E859F858230910559F12E85A1
:103830003F852330310534F48E859F858130910595
:1038400061F04AC02E853F852330310559F18E85C0
:103850009F858430910589F13FC0EB81FC8121A1D6
:1038600032A143A154A18F819885A985BA85822B65
:10387000932BA42BB52BEB81FC8181A392A3A3A353
:10388000B4A32AC0EB81FC8181A192A1A3A1B4A120
:103890000196A11DB11DEB81FC8181A392A3A3A37D
:1038A000B4A31AC0EB81FC818F819885A985BA8564
:1038B00081A392A3A3A3B4A30FC08981823059F03E
:1038C000EB81FC818F819885A985BA8581A392A31C
:1038D000A3A3B4A301C01A8289818130B9F58B8179
:1038E0009C8102960E941508EB81FC81968980914B
:1038F000D102891728F4EB81FC8186898093D1025B
:10390000EB81FC818689282F30E0C901880F991F3F
:10391000880F991F880F991F820F931FAC01445283
:103920005D4F8B819C819C012E5F3F4FCA01B90185
:103930000E946507EB81FC819689E091CB02F091B2
:10394000CC028689891710F40E94B30A0F900FBE2B
:103950008A812F960FB6F894DEBF0FBECDBFCF91F0
:10396000DF911F910F910895EF92FF920F931F9394
:10397000DF93CF93CDB7DEB762970FB6F894DEBF73
:103980000FBECDBF9F838E83488759876A877B8709
:103990002C871E870D87F88AEF8681E08A838E81C7
:1039A0009F819D838C8319828D859E85009761F010
:1039B000EC81FD8181A192A1A3A1B4A1ED85FE8539
:1039C00080839183A283B383EC81FD8185A18B8366
:1039D000EC81FD8182E085A38C85282F30E03A8B35
:1039E000298B89899A898230910559F129893A89E7
:1039F0002330310534F489899A898130910561F049
:103A00004AC029893A892330310559F189899A892F
:103A10008430910589F13FC0EC81FD8121A132A163
:103A200043A154A188859985AA85BB85822B932BB8
:103A3000A42BB52BEC81FD8181A392A3A3A3B4A3F6
:103A40002AC0EC81FD8181A192A1A3A1B4A101961C
:103A5000A11DB11DEC81FD8181A392A3A3A3B4A3F9
:103A60001AC0EC81FD8188859985AA85BB8581A3D3
:103A700092A3A3A3B4A30FC08B81823059F0EC8131
:103A8000FD8188859985AA85BB8581A392A3A3A37F
:103A9000B4A301C01A828B81813009F04FC080919C
:103AA000DB02882361F58C819D8102960E941508B6
:103AB000EC81FD8196898091D102891728F4EC81EF
:103AC000FD8186898093D102EC81FD818689282F32
:103AD00030E0C901880F991F880F991F880F991F1F
:103AE000820F931FAC0144525D4F8C819D819C01DC
:103AF0002E5F3F4FCA01B9010E9465070AC08C8141
:103B00009D819C01245F3F4F86E193E0B9010E94B3
:103B10006507EC81FD819689E091CB02F091CC02A2
:103B20008689891758F48F859889009721F0EF8549
:103B3000F88981E0808381E08093D4028A81629653
:103B40000FB6F894DEBF0FBECDBFCF91DF911F91AE
:103B50000F91FF90EF900895DF93CF93CDB7DEB72D
:103B600028970FB6F894DEBF0FBECDBF9E838D831E
:103B700078876F838D819E819C838B831982EB81F3
:103B8000FC8185A18A83EB81FC8182E085A3EB81A6
:103B9000FC8181A192A1A3A1B4A10196A11DB11D97
:103BA000EB81FC8181A392A3A3A3B4A38A8181307A
:103BB00009F04FC08091DB02882361F58B819C81E5
:103BC00002960E941508EB81FC8196898091D102B2
:103BD000891728F4EB81FC8186898093D102EB81DF
:103BE000FC818689282F30E0C901880F991F880F32
:103BF000991F880F991F820F931FAC0144525D4F8C
:103C00008B819C819C012E5F3F4FCA01B9010E94AC
:103C100065070AC08B819C819C01245F3F4F86E130
:103C200093E0B9010E946507EB81FC819689E091E0
:103C3000CB02F091CC028689891758F48F81988540
:103C4000009721F0EF81F88581E0808381E0809307
:103C5000D40228960FB6F894DEBF0FBECDBFCF9129
:103C6000DF910895DF93CF93CDB7DEB727970FB6D7
:103C7000F894DEBF0FBECDBF9D838C838C819D8168
:103C8000009739F48091CB029091CC029F838E8370
:103C900004C08C819D819F838E838E819F819B83B5
:103CA0008A830FB6F8940F92EA81FB8185A1823056
:103CB00031F4EA81FB8115A281E0898301C0198278
:103CC0000F900FBE898127960FB6F894DEBF0FBE06
:103CD000CDBFCF91DF910895DF93CF93CDB7DEB7FE
:103CE00027970FB6F894DEBF0FBECDBF9E838D839E
:103CF0006F838091CF029091D0029A8389838091C3
:103D0000CB029091CC0202960E94150829813A813B
:103D10008D819E81820F931F9C838B83E091CB02C8
:103D2000F091CC028B819C81938382832B813C8197
:103D300089819A812817390770F480911403909132
:103D400015032091CB023091CC022E5F3F4FB90179
:103D50000E94A9071EC04091120350911303809145
:103D6000CB029091CC029C012E5F3F4FCA01B9015A
:103D70000E94A9072091D7023091D8028B819C81A3
:103D80008217930730F48B819C819093D8028093A3
:103D9000D70227960FB6F894DEBF0FBECDBFCF91E6
:103DA000DF910895FB01DC0102C001900D924150AA
:0A3DB0005040D8F70895F894FFCFB3
:0C3DBA005441534B5F310049444C45001C
:00000001FF
