:100000000C942A000C9447000C9447000C94470071
:100010000C9447000C9447000C9447000C94BC0BC4
:100020000C9447000C9447000C9447000C94470034
:100030000C9447000C9447000C9447000C94470024
:100040000C9447000C9447000C9447000C94470014
:100050000C94470011241FBECFE5D8E0DEBFCDBF12
:1000600010E0A0E6B0E0E8EAFDE302C005900D92E2
:10007000A437B107D9F713E0A4E7B0E001C01D929F
:10008000A033B107E1F70E94AD080C94D21E0C9486
:100090000000DF93CF9300D000D000D0CDB7DEB703
:1000A0008A836B834C8319828A81843018F081E0C3
:1000B0008983E0C08B81883018F082E08983DAC0C0
:1000C0008C81882331F08C81813019F083E0898321
:1000D000D1C08A81282F30E03E832D838D819E817F
:1000E0008130910509F443C02D813E8122303105D4
:1000F0002CF48D819E81009771F0BCC02D813E81D2
:100100002230310509F45FC08D819E8183309105D5
:1001100009F485C0AFC08C818130A1F4ABE3B0E0BD
:10012000EBE3F0E08081482F8B81282F30E081E0E5
:1001300090E0022E02C0880F991F0A94E2F7842BE8
:100140008C9398C0ABE3B0E0EBE3F0E08081482F04
:100150008B81282F30E081E090E0022E02C0880FD2
:10016000991F0A94E2F7809584238C9383C08C8135
:100170008130A1F4A8E3B0E0E8E3F0E08081482F0B
:100180008B81282F30E081E090E0022E02C0880FA2
:10019000991F0A94E2F7842B8C936CC0A8E3B0E01B
:1001A000E8E3F0E08081482F8B81282F30E081E068
:1001B00090E0022E02C0880F991F0A94E2F7809502
:1001C00084238C9357C08C818130A1F4A5E3B0E0E7
:1001D000E5E3F0E08081482F8B81282F30E081E03B
:1001E00090E0022E02C0880F991F0A94E2F7842B38
:1001F0008C9340C0A5E3B0E0E5E3F0E08081482FB8
:100200008B81282F30E081E090E0022E02C0880F21
:10021000991F0A94E2F7809584238C932BC08C81DC
:100220008130A1F4A2E3B0E0E2E3F0E08081482F66
:100230008B81282F30E081E090E0022E02C0880FF1
:10024000991F0A94E2F7842B8C9314C0A2E3B0E0C8
:10025000E2E3F0E08081482F8B81282F30E081E0BD
:1002600090E0022E02C0880F991F0A94E2F7809551
:1002700084238C93898126960FB6F894DEBF0FBE37
:10028000CDBFCF91DF910895DF93CF9300D000D001
:1002900000D0CDB7DEB78A836B834C8319828A8105
:1002A000843018F081E08983E0C08B81883018F0B9
:1002B00082E08983DAC08C81882331F08C8181309F
:1002C00019F083E08983D1C08A81282F30E03E83F2
:1002D0002D838D819E818130910509F443C02D814C
:1002E0003E81223031052CF48D819E81009771F082
:1002F000BCC02D813E812230310509F45FC08D8163
:100300009E818330910509F485C0AFC08C81813016
:10031000A1F4AAE3B0E0EAE3F0E08081482F8B810A
:10032000282F30E081E090E0022E02C0880F991F54
:100330000A94E2F7842B8C9398C0AAE3B0E0EAE336
:10034000F0E08081482F8B81282F30E081E090E021
:10035000022E02C0880F991F0A94E2F78095842329
:100360008C9383C08C818130A1F4A7E3B0E0E7E3F4
:10037000F0E08081482F8B81282F30E081E090E0F1
:10038000022E02C0880F991F0A94E2F7842B8C93E7
:100390006CC0A7E3B0E0E7E3F0E08081482F8B81F9
:1003A000282F30E081E090E0022E02C0880F991FD4
:1003B0000A94E2F7809584238C9357C08C81813016
:1003C000A1F4A4E3B0E0E4E3F0E08081482F8B8166
:1003D000282F30E081E090E0022E02C0880F991FA4
:1003E0000A94E2F7842B8C9340C0A4E3B0E0E4E3EA
:1003F000F0E08081482F8B81282F30E081E090E071
:10040000022E02C0880F991F0A94E2F78095842378
:100410008C932BC08C818130A1F4A1E3B0E0E1E3A7
:10042000F0E08081482F8B81282F30E081E090E040
:10043000022E02C0880F991F0A94E2F7842B8C9336
:1004400014C0A1E3B0E0E1E3F0E08081482F8B81AC
:10045000282F30E081E090E0022E02C0880F991F23
:100460000A94E2F7809584238C93898126960FB6AF
:10047000F894DEBF0FBECDBFCF91DF910895DF931B
:10048000CF93CDB7DEB727970FB6F894DEBF0FBE78
:10049000CDBF8A836B835D834C8319828A818430CC
:1004A00018F081E0898376C08B81883018F082E073
:1004B000898370C08A81282F30E03F832E834E814C
:1004C0005F814130510559F18E819F8182309105C4
:1004D00034F42E813F812115310569F05BC04E81D6
:1004E0005F814230510579F18E819F818330910582
:1004F00009F43DC04FC0E9E3F0E08081282F30E0EF
:100500008B81882F90E0A90102C0559547958A9567
:10051000E2F7CA018170EC81FD8180833BC0E6E394
:10052000F0E08081282F30E08B81882F90E0A901B6
:1005300002C0559547958A95E2F7CA018170EC8112
:10054000FD81808327C0E3E3F0E08081282F30E045
:100550008B81882F90E0A90102C0559547958A9517
:10056000E2F7CA018170EC81FD81808313C0E0E372
:10057000F0E08081282F30E08B81882F90E0A90166
:1005800002C0559547958A95E2F7CA018170EC81C2
:10059000FD818083898127960FB6F894DEBF0FBE58
:1005A000CDBFCF91DF910895DF93CF9300D000D0DE
:1005B0000F92CDB7DEB78A836B8319828A8184302C
:1005C00018F081E0898332C08A81282F30E03D8392
:1005D0002C838C819D8181309105D1F02C813D81CE
:1005E000223031052CF48C819D81009761F01EC072
:1005F0002C813D812230310581F08C819D818330B9
:10060000910581F013C0EBE3F0E08B8180830EC095
:10061000E8E3F0E08B81808309C0E5E3F0E08B81C3
:10062000808304C0E2E3F0E08B81808389810F90B6
:100630000F900F900F900F90CF91DF910895DF935F
:10064000CF9300D000D00F92CDB7DEB78A836B83F3
:1006500019828A81843018F081E0898332C08A81CE
:10066000282F30E03D832C838C819D818130910542
:10067000D1F02C813D81223031052CF48C819D817B
:10068000009761F01EC02C813D812230310581F040
:100690008C819D818330910581F013C0EAE3F0E005
:1006A0008B8180830EC0E7E3F0E08B81808309C0FB
:1006B000E4E3F0E08B81808304C0E1E3F0E08B8130
:1006C000808389810F900F900F900F900F90CF91A2
:1006D000DF910895DF93CF9300D0CDB7DEB78BE0E5
:1006E00090E00E94AF069A83898389819A8100975E
:1006F00049F0E981FA811182108289819A810296FA
:100700000E942B0789819A810F900F90CF91DF91E2
:100710000895DF93CF93CDB7DEB760970FB6F89407
:10072000DEBF0FBECDBF9A8789877C876B875E87C8
:100730004D87388B2F8789859A859C838B83198277
:100740000E94D115EB81FC818081918198878F83F4
:1007500089859A852B853C85B9010E9460052F818A
:1007600038858B859C85282B392B8D859E85282364
:1007700039238D859E8528173907C9F42F8138853F
:100780008B859C85822B932B9E838D83EB81FC81B3
:10079000208131818D859E8580959095822393233C
:1007A000EB81FC8191838083188A1F861EC08F8510
:1007B0009889009791F08B819C81BC016E5F7F4F7F
:1007C0008D859E859C0135604F855889CB01B90187
:1007D0000E9441181E821D8208C0EB81FC8180812D
:1007E00091819E838D8381E089830E94DD158A83B8
:1007F0008F859889009709F43AC08A81882311F47B
:100800000E94AA0A0E94941A9E838D838D819E81E4
:1008100080709270009731F50FB6F8940F92EB81CB
:10082000FC81808191819E838D832D813E818D8588
:100830009E85282339238D859E852817390771F4D5
:10084000EB81FC81208131818D859E8580959095FD
:1008500082239323EB81FC81918380830F900FBED1
:1008600081E089838D819E8190709E838D838D81AF
:100870009E8160960FB6F894DEBF0FBECDBFCF91BC
:10088000DF9108950F931F93DF93CF93CDB7DEB71A
:1008900063970FB6F894DEBF0FBECDBF9D878C87E0
:1008A0007F876E87488B298B1B8B0A8B8C859D8558
:1008B0009B878A871F821E821B820E94D115EA8530
:1008C000FB85808191819A83898389819A812E8594
:1008D0003F85B90149890E947D068D838D818823DA
:1008E000C1F089819A81998788871B8A1A8A8889A9
:1008F0008823E9F1EA85FB85208131818E859F85FA
:100900008095909582239323EA85FB85918380834C
:100910002EC08A899B89009739F489819A819987A9
:10092000888781E08B8323C08889882329F08E8182
:100930009F8191609F838E838989882329F08E818E
:100940009F8194609F838E838A859B85BC016E5FA7
:100950007F4F2E853F858E819F81282B392B4A8999
:100960005B89CB01B9010E944118198618860E9443
:10097000DD158C838A899B89009709F43CC08C81A2
:10098000882311F40E94AA0A0E94941A99878887E2
:100990008885998580709270009741F50FB6F8941C
:1009A0000F92EA85FB858081918199878887888568
:1009B00099852E853F85B90149890E947D06882346
:1009C00089F08889882371F0EA85FB85208131814F
:1009D0008E859F858095909582239323EA85FB855C
:1009E0009183808381E08B830F900FBE88859985EA
:1009F0009070998788878885998563960FB6F89453
:100A0000DEBF0FBECDBFCF91DF911F910F91089533
:100A1000DF93CF93CDB7DEB728970FB6F894DEBF3C
:100A20000FBECDBF9E838D8378876F838D819E811E
:100A30009C838B830FB6F8940F92EB81FC818081AD
:100A400091819A838983EB81FC81208131818F811F
:100A500098858095909582239323EB81FC819183E7
:100A600080830F900FBE89819A8128960FB6F894E3
:100A7000DEBF0FBECDBFCF91DF910895DF93CF933F
:100A8000CDB7DEB727970FB6F894DEBF0FBECDBF48
:100A90009F838E838E819F819C838B831D82EB81BC
:100AA000FC81808191819A83898389819A812796AB
:100AB0000FB6F894DEBF0FBECDBFCF91DF91089582
:100AC000DF93CF93CDB7DEB765970FB6F894DEBF4F
:100AD0000FBECDBF9B8B8A8B7D8B6C8B1986188646
:100AE0008A899B899B838A8319828A819B8102964A
:100AF0009B878A878A859B8503969D878C870E9422
:100B0000D115EA85FB8585819681998B888BEA8151
:100B1000FB81208131818C899D89822B932BEA81F5
:100B2000FB819183808359C0E889F989828193810F
:100B30009F878E87E889F989808191819F838E8341
:100B400019828E819F8180709D838C838E819F818D
:100B500090709F838E838C819D81807094700097AC
:100B600069F4EA81FB81208131818E819F8182231A
:100B70009323009791F081E089830FC0EA81FB8184
:100B8000208131818E819F81282339238E819F810D
:100B90002817390711F481E0898389818823C9F0F6
:100BA0008C819D8180709170009741F08885998536
:100BB0002E813F81822B932B99878887EA81FB8145
:100BC000808191819C01326088899989B9010E9454
:100BD000DC188E859F85998B888B288939898C852F
:100BE0009D852817390709F09FCFEA81FB81208175
:100BF0003181888599858095909582239323EA8118
:100C0000FB81918380830E94DD15EA81FB818081D5
:100C1000918165960FB6F894DEBF0FBECDBFCF9120
:100C2000DF910895DF93CF9300D000D000D0CDB7EF
:100C3000DEB79E838D838D819E819C838B838B8188
:100C40009C8102969A8389830E94D11508C0E9810C
:100C5000FA818581968160E072E00E94DC18E9816A
:100C6000FA818081882399F78B819C810E940507F6
:100C70000E94DD1526960FB6F894DEBF0FBECDBFDD
:100C8000CF91DF910895DF93CF9300D000D000D0B3
:100C9000CDB7DEB79A8389834B835C836D837E8374
:100CA00089819A812B813C81B9010E946005269639
:100CB0000FB6F894DEBF0FBECDBFCF91DF91089580
:100CC000DF93CF9300D000D000D0CDB7DEB79A83AA
:100CD00089834B835C836D837E8389819A812B8199
:100CE0003C81B9010E94080526960FB6F894DEBF34
:100CF0000FBECDBFCF91DF910895DF93CF9300D08A
:100D000000D000D0CDB7DEB79B838A837D836C8310
:100D10004E8319828E81882359F48A819B812C818C
:100D20003D8182239323009781F081E089830DC068
:100D30002A813B818C819D81282339238C819D814F
:100D40002817390711F481E08983898126960FB627
:100D5000F894DEBF0FBECDBFCF91DF910895DF9332
:100D6000CF9300D000D0CDB7DEB79C838B831A829F
:100D700019820E94D115809176009091770000979A
:100D800031F489E790E0909377008093760080912A
:100D90007400909175002B813C81820F931F22E09B
:100DA0008735920738F520917400309175008B815A
:100DB0009C81280F391F80917400909175008217D3
:100DC0009307C0F4209176003091770080917400F1
:100DD00090917500820F931F9A83898320917400EC
:100DE000309175008B819C81820F931F90937500C9
:100DF000809374000E94DD1589819A810F900F9075
:100E00000F900F90CF91DF910895DF93CF9300D093
:100E1000CDB7DEB79A8389830F900F90CF91DF9182
:100E20000895DF93CF93CDB7DEB71092750010927F
:100E30007400CF91DF910895DF93CF93CDB7DEB7E4
:100E4000209174003091750087E592E0821B930B2E
:100E5000CF91DF910895DF93CF9300D0CDB7DEB768
:100E60009A83898389819A810396E981FA819283A1
:100E70008183E981FA818FEF9FEF94838383898156
:100E80009A810396E981FA819683858389819A8183
:100E90000396E981FA8190878783E981FA8110823C
:100EA0000F900F90CF91DF910895DF93CF9300D0F3
:100EB000CDB7DEB79A838983E981FA8111861086DE
:100EC0000F900F90CF91DF910895DF93CF9300D0D3
:100ED00000D000D0CDB7DEB79C838B837E836D833B
:100EE000EB81FC81818192819A838983ED81FE81EE
:100EF00089819A8193838283E981FA8184819581B2
:100F0000ED81FE8195838483E981FA810480F581F6
:100F1000E02D8D819E8193838283E981FA818D8189
:100F20009E8195838483ED81FE818B819C81918755
:100F30008087EB81FC8180818F5FEB81FC818083E6
:100F400026960FB6F894DEBF0FBECDBFCF91DF91CE
:100F50000895DF93CF93CDB7DEB728970FB6F894F7
:100F6000DEBF0FBECDBF9E838D8378876F83EF81F9
:100F7000F885808191819A83898389819A812FEF75
:100F80008F3F920739F4ED81FE81878190859C83A4
:100F90008B8318C08D819E8103969C838B8306C0B2
:100FA000EB81FC81828193819C838B83EB81FC812B
:100FB0000280F381E02D2081318189819A8182171D
:100FC000930770F7EB81FC8182819381EF81F88533
:100FD00093838283EF81F8850280F381E02D8F81F6
:100FE000988595838483EF81F8858B819C81958397
:100FF0008483EB81FC818F81988593838283EF8149
:10100000F8858D819E8191878087ED81FE81808129
:101010008F5FED81FE81808328960FB6F894DEBF46
:101020000FBECDBFCF91DF910895DF93CF9300D056
:1010300000D0CDB7DEB79C838B83EB81FC818085AC
:1010400091859A838983EB81FC81A281B381EB81B5
:10105000FC818481958115969C938E931497EB81E6
:10106000FC81A481B581EB81FC81828193811396FF
:101070009C938E931297E981FA81218132818B8131
:101080009C812817390741F4EB81FC81848195818B
:10109000E981FA8192838183EB81FC81118610863C
:1010A000E981FA8180818150E981FA818083E98137
:1010B000FA8180810F900F900F900F90CF91DF9168
:1010C0000895DF93CF9300D00F92CDB7DEB79B8307
:1010D0008A8380912E0390912F036AE070E00E9432
:1010E000D10E82E060E09E012F5F3F4FA9010E9478
:1010F0003F028981882359F480912E0390912F0318
:1011000060E070E040E050E020E00E94D10C88EC0C
:1011100090E00E947115DDCFDF93CF9300D0CDB763
:10112000DEB79A83898380912E0390912F036FEF0E
:101130007FEF0E94D10E9091D00281E089278093A9
:10114000D0029091D00282E061E0492F0E944900D4
:1011500088EE93E00E947115E6CFEF92FF920F9315
:10116000DF93CF93CDB7DEB782E060E040E00E942E
:10117000440182E060E041E00E94490082E061E0D9
:1011800041E00E94440181E060E043E00E94450CA0
:1011900090932F0380932E0381E698E020E630E0C1
:1011A000B90146E950E020E030E001E0EE24FF2400
:1011B0000E94E1128CE898E027E630E0B90146E9A8
:1011C00050E020E030E002E0EE24FF240E94E11233
:1011D0000E949315FFCFDF93CF93CDB7DEB728974B
:1011E0000FB6F894DEBF0FBECDBF9C838B837E838A
:1011F0006D8358874F83EB81FC8181E180838B81F4
:101200009C8101979C838B83EB81FC8182E28083AC
:101210008B819C8101979C838B83EB81FC8183E391
:1012200080838B819C8101979C838B838D819E81A0
:101230009A8389838981EB81FC8180838B819C8166
:1012400001979C838B8389819A81892F99279A831F
:1012500089838981EB81FC8180838B819C810197CB
:101260009C838B83EB81FC8110828B819C81019715
:101270009C838B83EB81FC8180E880838B819C81C4
:1012800001979C838B83EB81FC8110828B819C81F5
:1012900001979C838B83EB81FC8182E080838B812F
:1012A0009C8101979C838B83EB81FC8183E080830D
:1012B0008B819C8101979C838B83EB81FC8184E0F3
:1012C00080838B819C8101979C838B83EB81FC8144
:1012D00085E080838B819C8101979C838B83EB814C
:1012E000FC8186E080838B819C8101979C838B832A
:1012F000EB81FC8187E080838B819C8101979C83BB
:101300008B83EB81FC8188E080838B819C810197BA
:101310009C838B83EB81FC8189E080838B819C8122
:1013200001979C838B83EB81FC8180E180838B819F
:101330009C8101979C838B83EB81FC8181E180837D
:101340008B819C8101979C838B83EB81FC8182E163
:1013500080838B819C8101979C838B83EB81FC81B3
:1013600083E180838B819C8101979C838B83EB81BC
:10137000FC8184E180838B819C8101979C838B839A
:10138000EB81FC8185E180838B819C8101979C832B
:101390008B83EB81FC8186E180838B819C8101972B
:1013A0009C838B83EB81FC8187E180838B819C8193
:1013B00001979C838B83EB81FC8188E180838B8107
:1013C0009C8101979C838B83EB81FC8189E18083E5
:1013D0008B819C8101979C838B83EB81FC8180E2D4
:1013E00080838B819C8101979C838B83EB81FC8123
:1013F00081E280838B819C8101979C838B83EB812D
:10140000FC8182E280838B819C8101979C838B830A
:10141000EB81FC8183E280838B819C8101979C839B
:101420008B838F8198859A8389838981EB81FC8165
:1014300080838B819C8101979C838B8389819A8196
:10144000892F99279A8389838981EB81FC81808305
:101450008B819C8101979C838B83EB81FC8186E24D
:1014600080838B819C8101979C838B83EB81FC81A2
:1014700087E280838B819C8101979C838B83EB81A6
:10148000FC8188E280838B819C8101979C838B8384
:10149000EB81FC8189E280838B819C8101979C8315
:1014A0008B83EB81FC8180E380838B819C8101971E
:1014B0009C838B83EB81FC8181E380838B819C8186
:1014C00001979C838B838B819C8128960FB6F8941F
:1014D000DEBF0FBECDBFCF91DF910895DF93CF93D5
:1014E000CDB7DEB70E94600BA091D102B091D202BD
:1014F000CD91CDBFDD91DEBFFF91EF91DF91CF9117
:10150000BF91AF919F918F917F916F915F914F911B
:101510003F912F911F910F91FF90EF90DF90CF900F
:10152000BF90AF909F908F907F906F905F904F9003
:101530003F902F901F900F900FBE0F90089581E065
:10154000CF91DF910895DF93CF93CDB7DEB7CF91E1
:10155000DF9108950F920FB6F8940F921F92112405
:101560002F923F924F925F926F927F928F929F92B3
:10157000AF92BF92CF92DF92EF92FF920F931F93A1
:101580002F933F934F935F936F937F938F939F938B
:10159000AF93BF93CF93DF93EF93FF93A091D102CB
:1015A000B091D2020DB60D920EB60D920E94B217F6
:1015B000A091D102B091D202CD91CDBFDD91DEBF1D
:1015C000FF91EF91DF91CF91BF91AF919F918F915B
:1015D0007F916F915F914F913F912F911F910F914B
:1015E000FF90EF90DF90CF90BF90AF909F908F9043
:1015F0007F906F905F904F903F902F901F900F9033
:101600000FBE0F9008950F920FB6F8940F921F928D
:1016100011242F923F924F925F926F927F928F92FE
:101620009F92AF92BF92CF92DF92EF92FF920F9371
:101630001F932F933F934F935F936F937F938F935A
:101640009F93AF93BF93CF93DF93EF93FF93A091BB
:10165000D102B091D2020DB60D920EB60D920E943B
:10166000CD16882311F00E94B217A091D102B0913B
:10167000D202CD91CDBFDD91DEBFFF91EF91DF9121
:10168000CF91BF91AF919F918F917F916F915F911A
:101690004F913F912F911F910F91FF90EF90DF900D
:1016A000CF90BF90AF909F908F907F906F905F9002
:1016B0004F903F902F901F900F900FBE0F90089566
:1016C000DF93CF9300D000D000D0CDB7DEB780E459
:1016D0009FE1A0E0B0E08B839C83AD83BE838B81D0
:1016E0009C81AD81BE81689415F8B695A7959795B4
:1016F00087951694D1F78B839C83AD83BE838B81B2
:101700009C81AD81BE810197A109B1098B839C8326
:10171000AD83BE838B8189838B819C81AD81BE81AA
:10172000892F9A2FAB2FBB278B839C83AD83BE83DE
:101730008B818A83EBE4F0E08A818083EAE4F0E045
:10174000898180838BE08983EEE4F0E08981808366
:10175000E9E5F0E080818983898180618983E9E519
:10176000F0E08981808326960FB6F894DEBF0FBE25
:10177000CDBFCF91DF9108950E94030B1895DF93A1
:10178000CF9300D000D00F92CDB7DEB79C838B8370
:101790006D838B819C819A8389830FB6F8940F9215
:1017A000E981FA8140815181E981FA81838D282F75
:1017B00030E0E981FA81848D882F90E0BC01269F7A
:1017C000C001279F900D369F900D1124840F951F07
:1017D000E981FA8195838483E981FA81128EE98116
:1017E000FA8180819181E981FA8193838283E98101
:1017F000FA8140815181E981FA81838D882F90E0BF
:101800009C0121503040E981FA81848D882F90E03D
:10181000BC01269FC001279F900D369F900D11247B
:10182000840F951FE981FA8197838683E981FA8184
:101830008FEF858FE981FA818FEF868F8D818823E5
:1018400079F4E981FA8180858823A1F089819A81E0
:1018500008960E947118882369F00E94AA0A0AC09B
:1018600089819A8108960E942B0789819A814196E5
:101870000E942B070F900FBE81E00F900F900F90EA
:101880000F900F90CF91DF9108950F931F93DF93E7
:10189000CF93CDB7DEB729970FB6F894DEBF0FBE52
:1018A000CDBF8F83688749878885882319F41C8278
:1018B0001B8210C08F81282F30E08885882F90E010
:1018C000AC01249FC001259F900D349F900D1124E1
:1018D0009C838B838B819C814F960E94AF069E8355
:1018E0008D838D819E810097A1F08D819E819A8349
:1018F000898389819A814F969A83898329813A8144
:10190000ED81FE818F816885A90129858F010E9463
:10191000960C8D819E8129960FB6F894DEBF0FBE7E
:10192000CDBFCF91DF911F910F9108950F931F931A
:10193000DF93CF93CDB7DEB727970FB6F894DEBF0E
:101940000FBECDBF89836A835C834B832D831F8346
:101950000E838A81882339F48E819F81EE81FF81F5
:101960009183808306C08B819C81EE81FF8191836E
:101970008083EE81FF818981838FEE81FF818A815F
:10198000848F8E819F8161E00E94BF0B27960FB6E6
:10199000F894DEBF0FBECDBFCF91DF911F910F91A5
:1019A0000895DF93CF93CDB7DEB72F970FB6F89496
:1019B000DEBF0FBECDBF998788877B876A875D872B
:1019C0004C872E871C82888599859A8389830FB6D8
:1019D000F8940F92E981FA81928DE981FA81838DE1
:1019E000981718F08E85823011F589819A812A85A1
:1019F0003B85B9014E850E9423118B83E981FA81D1
:101A00008189882351F089819A8141960E947118B9
:101A1000882341F00E94AA0A05C08B81882311F017
:101A20000E94AA0A0F900FBE81E08F875CC08C8550
:101A30009D85009721F40F900FBE1F8654C08C81A6
:101A4000882331F4CE0105960E94571981E08C83DA
:101A50000F900FBE0E94D1150FB6F8940F92E98136
:101A6000FA81858D8F3F19F4E981FA81158EE9811C
:101A7000FA81868D8F3F19F4E981FA81168E0F90D5
:101A80000FBECE0105969E01245F3F4FB9010E9413
:101A90007019882309F589819A810E949F128823F1
:101AA000A1F089819A8108962C853D85B9010E9413
:101AB0001F1889819A810E9410120E94DD158823C7
:101AC00009F085CF0E94AA0A82CF89819A810E945B
:101AD00010120E94DD157BCF89819A810E9410121D
:101AE0000E94DD151F868F852F960FB6F894DEBFF6
:101AF0000FBECDBFCF91DF910895DF93CF93CDB7C8
:101B0000DEB72C970FB6F894DEBF0FBECDBF9F8314
:101B10008E83798768875B874A872C878E819F8130
:101B20009B838A831C82EA81FB81928DEA81FB81FF
:101B3000838D981718F08C85823061F5EA81FB81DE
:101B4000868D89838A819B8128853985B9014C8559
:101B50000E94231189818F3FA9F4EA81FB81818949
:101B60008823A9F08A819B8141960E94711888235D
:101B700071F08A859B85009751F0EA85FB8581E0AD
:101B8000808305C089818F5FEA81FB81868F81E038
:101B90008D8301C01D828D812C960FB6F894DEBF17
:101BA0000FBECDBFCF91DF910895DF93CF93CDB717
:101BB000DEB72A970FB6F894DEBF0FBECDBF988769
:101BC0008F837A8769878F8198859C838B831D8219
:101BD000EB81FC81828D8A83EB81FC81938D8A81EC
:101BE000891748F5EB81FC81868D89838A818F5F17
:101BF000EB81FC81828F89818F3FA9F4EB81FC818D
:101C000081898823A9F08B819C8141960E9471185B
:101C1000882371F089859A85009751F0E985FA85C6
:101C200081E0808305C089818F5FEB81FC81868F95
:101C300081E08E8301C01E828E812A960FB6F894B1
:101C4000DEBF0FBECDBFCF91DF910895DF93CF935D
:101C5000CDB7DEB72E970FB6F894DEBF0FBECDBF5F
:101C6000998788877B876A875D874C871C828885F0
:101C700099859B838A830FB6F8940F92EA81FB8142
:101C8000828D898389818823F9F08A819B812A85C5
:101C90003B85B9010E94C91189818150EA81FB818C
:101CA000828FEA81FB818085882349F08A819B812C
:101CB00008960E947118882311F00E94AA0A0F90BA
:101CC0000FBE81E08E8763C08C859D85009721F4CF
:101CD0000F900FBE1E865BC08C81882331F4CE012D
:101CE00005960E94571981E08C830F900FBE0E94C9
:101CF000D1150FB6F8940F92EA81FB81858D8F3F45
:101D000019F4EA81FB81158EEA81FB81868D8F3F74
:101D100019F4EA81FB81168E0F900FBECE01059655
:101D20009E01245F3F4FB9010E947019882309F575
:101D30008A819B810E9463128823A1F08A819B8102
:101D400041962C853D85B9010E941F188A819B818F
:101D50000E9410120E94DD15882309F08CCF0E948A
:101D6000AA0A89CF8A819B810E9410120E94DD15E8
:101D700082CF8A819B810E9410120E94DD158A8188
:101D80009B810E946312882309F475CF1E868E857D
:101D90002E960FB6F894DEBF0FBECDBFCF91DF9168
:101DA0000895DF93CF93CDB7DEB72C970FB6F89495
:101DB000DEBF0FBECDBF998788877B876A871C826D
:101DC000888599859B838A830FB6F8940F92EA8160
:101DD000FB81828D898389818823C1F0898181502B
:101DE000EA81FB81828FEA81FB818085882349F02B
:101DF0008A819B8108960E947118882311F00E94A5
:101E0000AA0A0F900FBE81E08C8763C08A859B85EC
:101E1000009721F40F900FBE1C865BC08C81882335
:101E200031F4CE0105960E94571981E08C830F9002
:101E30000FBE0E94D1150FB6F8940F92EA81FB8174
:101E4000858D8F3F19F4EA81FB81158EEA81FB8134
:101E5000868D8F3F19F4EA81FB81168E0F900FBE9D
:101E6000CE0105969E01265F3F4FB9010E94701971
:101E7000882309F58A819B810E9463128823A1F03F
:101E80008A819B8141962A853B85B9010E941F1852
:101E90008A819B810E9410120E94DD15882309F01F
:101EA00093CF0E94AA0A90CF8A819B810E94101230
:101EB0000E94DD1589CF8A819B810E9410120E94A9
:101EC000DD158A819B810E946312882309F47CCFEF
:101ED0001C868C852C960FB6F894DEBF0FBECDBF46
:101EE000CF91DF910895DF93CF93CDB7DEB76097A1
:101EF0000FB6F894DEBF0FBECDBF9B878A877D8764
:101F00006C875F874E871E828A859B859B838A8329
:101F10000FB6F8940F92EA81FB81828D89838981C3
:101F2000882331F1EA81FB81868197819D838C83AF
:101F30008A819B812C853D85B9010E94C911EA8166
:101F4000FB818C819D8197838683EA81FB818189D6
:101F5000882349F08A819B8141960E9471188823C9
:101F600011F00E94AA0A0F900FBE81E0888B63C017
:101F70008E859F85009721F40F900FBE188A5BC055
:101F80008E81882331F4CE0107960E94571981E093
:101F90008E830F900FBE0E94D1150FB6F8940F924A
:101FA000EA81FB81858D8F3F19F4EA81FB81158ED3
:101FB000EA81FB81868D8F3F19F4EA81FB81168EC1
:101FC0000F900FBECE0107969E01225F3F4FB901D1
:101FD0000E947019882309F58A819B810E946312EF
:101FE0008823A1F08A819B8141962E853F85B90186
:101FF0000E941F188A819B810E9410120E94DD1589
:10200000882309F085CF0E94AA0A82CF8A819B810A
:102010000E9410120E94DD157BCF8A819B810E9455
:1020200010120E94DD158A819B810E946312882311
:1020300009F46ECF188A888960960FB6F894DEBFCF
:102040000FBECDBFCF91DF910895DF93CF93CDB772
:10205000DEB72C970FB6F894DEBF0FBECDBF9887C2
:102060008F837A8769875C874B878F8198859C836C
:102070008B831D82EB81FC81828D8A838A818823F8
:1020800081F1EB81FC81858D89838B819C81298500
:102090003A85B9010E94C9118A818150EB81FC8186
:1020A000828F89818F3FA9F4EB81FC818085882311
:1020B000A9F08B819C8108960E947118882371F089
:1020C0008B859C85009751F0EB85FC8581E08083B2
:1020D00005C089818F5FEB81FC81858F81E08E83D4
:1020E00001C01E828E812C960FB6F894DEBF0FBE03
:1020F000CDBFCF91DF910895DF93CF93CDB7DEB7FA
:102100002A970FB6F894DEBF0FBECDBF98878F8396
:102110007A8769878F8198859A8389831D82E9816F
:10212000FA81828D8823B1F0E981FA8186819781D5
:102130009C838B8389819A8129853A85B9010E9484
:10214000C911E981FA818B819C819783868381E023
:102150008E8301C01E828E812A960FB6F894DEBF50
:102160000FBECDBFCF91DF910895DF93CF9300D005
:102170000F92CDB7DEB79B838A830FB6F8940F9288
:10218000EA81FB81828D89830F900FBE89810F9038
:102190000F900F90CF91DF910895DF93CF9300D0F0
:1021A00000D00F92CDB7DEB79D838C838C819D814B
:1021B0009A8389830FB6F8940F92E981FA81938DFF
:1021C000E981FA81828D292F281B822F8B830F9022
:1021D0000FBE8B810F900F900F900F900F90CF91AB
:1021E000DF910895DF93CF9300D000D00F92CDB749
:1021F000DEB79D838C838C819D819A838983E9815D
:10220000FA81828D8B838B810F900F900F900F90AE
:102210000F90CF91DF910895DF93CF9300D000D03E
:10222000CDB7DEB79C838B838B819C819A83898316
:1022300089819A810E9405070F900F900F900F904F
:10224000CF91DF910895DF93CF93CDB7DEB7279776
:102250000FB6F894DEBF0FBECDBF9C838B837E8309
:102260006D834F831A82EB81FC81828D8983EB81A0
:10227000FC81848D882309F47DC08F81882399F5A2
:10228000EB81FC8162817381EB81FC81848D482F1D
:1022900050E02D813E81CB01B9010E94C91EEB8126
:1022A000FC8122813381EB81FC81848D882F90E039
:1022B000820F931FEB81FC8193838283EB81FC81EE
:1022C00022813381EB81FC81848195812817390734
:1022D00008F450C0EB81FC8180819181EB81FC810D
:1022E0009383828347C0EB81FC8166817781EB8198
:1022F000FC81848D482F50E02D813E81CB01B901B6
:102300000E94C91EEB81FC8126813781EB81FC8113
:10231000848D882F90E0909581959F4F820F931F19
:10232000EB81FC8197838683EB81FC812681378159
:10233000EB81FC81808191812817390790F4EB8132
:10234000FC8124813581EB81FC81848D882F90E094
:10235000909581959F4F820F931FEB81FC8197830E
:1023600086838F81823031F48981882319F08981B5
:102370008150898389818F5FEB81FC81828F8A8183
:1023800027960FB6F894DEBF0FBECDBFCF91DF9179
:102390000895DF93CF9300D000D0CDB7DEB79A83F6
:1023A00089837C836B83E981FA81848D882389F119
:1023B000E981FA8126813781E981FA81848D882F2C
:1023C00090E0820F931FE981FA8197838683E981E8
:1023D000FA8126813781E981FA81848195812817E4
:1023E000390740F0E981FA8180819181E981FA81A0
:1023F00097838683E981FA8146815781E981FA8151
:10240000848D282F30E08B819C81BA01A9010E9424
:10241000C91E0F900F900F900F90CF91DF910895EC
:10242000DF93CF9300D000D0CDB7DEB79C838B83F2
:102430000FB6F8940F92EB81FC81868D8A8311C0D0
:10244000EB81FC818189882379F08B819C81419685
:102450000E947118882311F00E94D3198A8181503B
:102460008A838A81181664F3EB81FC818FEF868F53
:102470000F900FBE0FB6F8940F92EB81FC81858D03
:10248000898311C0EB81FC818085882379F08B8161
:102490009C8108960E947118882311F00E94D3191C
:1024A0008981815089838981181664F3EB81FC81CD
:1024B0008FEF858F0F900FBE0F900F900F900F90A2
:1024C000CF91DF910895DF93CF9300D00F92CDB7D6
:1024D000DEB79B838A830FB6F8940F92EA81FB8163
:1024E000828D882319F481E0898301C019820F90BD
:1024F0000FBE89810F900F900F90CF91DF910895BB
:10250000DF93CF9300D000D00F92CDB7DEB79D837D
:102510008C838C819D819A838983E981FA81828D64
:10252000882319F481E08B8301C01B828B810F907B
:102530000F900F900F900F90CF91DF910895DF9340
:10254000CF9300D00F92CDB7DEB79B838A830FB6AF
:10255000F8940F92EA81FB81928DEA81FB81838D51
:10256000981719F481E0898301C019820F900FBE7A
:1025700089810F900F900F90CF91DF910895DF9395
:10258000CF9300D000D00F92CDB7DEB79D838C8360
:102590008C819D819A838983E981FA81928DE98179
:1025A000FA81838D981719F481E08B8301C01B8217
:1025B0008B810F900F900F900F900F90CF91DF9124
:1025C00008958F929F92AF92BF92CF92DF92EF9237
:1025D000FF920F931F93DF93CF93CDB7DEB7609732
:1025E0000FB6F894DEBF0FBECDBF9F838E83798771
:1025F00068875B874A873D872C870E87F88AEF8636
:102600008A859B850E94AF069A83898389819A81F6
:102610000097B1F086E290E00E94AF069D838C8324
:102620008C819D81009739F0EC81FD8189819A81AF
:10263000908F878B07C089819A810E94050702C00D
:102640001D821C828C819D810097E9F08A859B8583
:102650009C0140E050E08E819F8168857985EC8502
:10266000FD85AF85B889AC80BD808F01EE846D019A
:10267000882499240E9459138C819D810E941514ED
:1026800081E08B8302C08FEF8B838B8160960FB6C6
:10269000F894DEBF0FBECDBFCF91DF911F910F9198
:1026A000FF90EF90DF90CF90BF90AF909F908F9072
:1026B00008958F929F92AF92BF92CF92DF92EF9246
:1026C0000F931F93DF93CF93CDB7DEB764970FB609
:1026D000F894DEBF0FBECDBF9D838C837F836E8356
:1026E000288739874A875B871D870C87EE86D88ABB
:1026F000CF86BA8AA98A9C8A8B8AE989FA8927892E
:10270000308D888599850197820F931F9B838A83DB
:102710008E819F81009751F1198221C08981482FB4
:1027200050E08981282F30E08E819F81FC01E20FEB
:10273000F31F208189899A89840F951FFC0179965E
:1027400020838981282F30E08E819F81FC01E20F58
:10275000F31F8081882331F089818F5F898389818C
:102760008830E0F2E989FA8910A203C0E989FA8980
:10277000118E8E85843010F083E08E87E989FA8986
:102780008E85868B89899A8902960E945507898948
:102790009A890C960E945507E989FA8989899A894C
:1027A000918780878E85282F30E084E090E0821B1F
:1027B000930BE989FA8995878487E989FA89898958
:1027C0009A89938B828BE989FA8911A212A213A2AA
:1027D00014A2E989FA8915A28A819B812C813D8105
:1027E0004C855D85B9010E94EB08E989FA899183DE
:1027F00080838F859889009731F0EF85F8898989E2
:102800009A899183808364960FB6F894DEBF0FBED9
:10281000CDBFCF91DF911F910F91EF90DF90CF90BF
:10282000BF90AF909F908F900895DF93CF9300D08B
:10283000CDB7DEB79A8389830FB6F8940F92809153
:10284000D4028F5F8093D4028091D1029091D20202
:10285000009769F489819A819093D2028093D10282
:102860008091D4028130B9F40E94E71914C080919C
:10287000D802882381F4E091D102F091D2029689A6
:10288000E981FA818689891730F089819A8190934C
:10289000D2028093D1028091DC028F5F8093DC02B0
:1028A000E981FA8196898091D702891728F4E98114
:1028B000FA8186898093D702E981FA818689282F57
:1028C00030E0C901880F991F880F991F880F991F41
:1028D000820F931FAC014E515D4F89819A819C01FB
:1028E0002E5F3F4FCA01B9010E9465070F900FBECE
:1028F0008091D802882361F0E091D102F091D20258
:102900009689E981FA818689981710F40E94AA0AAB
:102910000F900F90CF91DF910895DF93CF9300D068
:1029200000D000D0CDB7DEB79C838B830FB6F89470
:102930000F928B819C81009739F48091D102909104
:10294000D2029E838D8304C08B819C819E838D8364
:102950008D819E819A83898389819A8102960E94C2
:102960001508E981FA8184899589009729F0898180
:102970009A810C960E9415088091DC028F5F8093EB
:10298000DC022091D1023091D20289819A81821792
:10299000930781F489819A819C012E5F3F4F85E2E4
:1029A00093E0B9010E9465078091D3028F5F809305
:1029B000D3020BC08091D40281508093D4028981CC
:1029C0009A810E94531A0E94691A0F900FBE80913B
:1029D000D802882359F02091D1023091D202898106
:1029E0009A818217930711F40E94AA0A26960FB6BD
:1029F000F894DEBF0FBECDBFCF91DF910895DF9376
:102A0000CF93CDB7DEB72A970FB6F894DEBF0FBECF
:102A1000CDBF98878F837A8769871B820E94D115E3
:102A20008091D5029091D6029A838983EF81F885AF
:102A30002081318189859A85820F931F9E838D83A2
:102A4000EF81F8852081318189819A8182179307EE
:102A500098F4EF81F885208131818D819E818217E4
:102A60009307E0F42D813E8189819A818217930733
:102A7000A8F481E08B8312C0EF81F8852081318139
:102A80008D819E818217930738F02D813E81898147
:102A90009A818217930710F481E08B83EF81F88588
:102AA0008D819E81918380838B81882349F08D81E4
:102AB0009E8129813A81821B930B60E00E94631EF4
:102AC0000E94DD158C838C81882311F40E94AA0A50
:102AD0002A960FB6F894DEBF0FBECDBFCF91DF911F
:102AE0000895DF93CF9300D00F92CDB7DEB79B83CD
:102AF0008A8319828A819B81009751F00E94D115A7
:102B00008A819B8160E00E94631E0E94DD1589839B
:102B10008981882311F40E94AA0A0F900F900F90C8
:102B2000CF91DF910895EF92FF920F93DF93CF93B0
:102B30000F92CDB7DEB78DED99E12EE630E0EFEDE7
:102B4000F2E0B90145E550E020E030E000E07F012F
:102B50000E94E11289838981813081F4F8948FEF9A
:102B60009FEF9093DE028093DD0281E08093D80294
:102B70001092D6021092D5020E946E0A0F90CF9149
:102B8000DF910F91FF90EF900895DF93CF93CDB732
:102B9000DEB7F8941092D8020E94A30ACF91DF9179
:102BA0000895DF93CF93CDB7DEB78091E1028F5FB9
:102BB0008093E102CF91DF910895DF93CF9300D00E
:102BC00000D0CDB7DEB71C821B821A820FB6F894F4
:102BD0000F928091E10281508093E1028091E102A5
:102BE000882309F073C08091D402882309F46EC051
:102BF00045C0E0912103F0912203868197819C8357
:102C00008B838B819C810C960E9415088B819C8103
:102C100002960E941508EB81FC8196898091D7026B
:102C2000891728F4EB81FC8186898093D702EB8198
:102C3000FC818689282F30E0C901880F991F880FF1
:102C4000991F880F991F820F931FAC014E515D4F42
:102C50008B819C819C012E5F3F4FCA01B9010E946C
:102C60006507EB81FC819689E091D102F091D20257
:102C70008689981718F081E08093DA0280911C030E
:102C8000882309F0B6CF8B819C81009711F00E94B8
:102C9000691A8091D90289838981882379F00E94F9
:102CA000CD16882319F081E08093DA028981815062
:102CB00089838981882399F71092D9028091DA0259
:102CC000882321F081E08A830E94AA0A0F900FBE18
:102CD0008A810F900F900F900F90CF91DF91089500
:102CE000DF93CF9300D0CDB7DEB70FB6F8940F9235
:102CF0008091D5029091D6029A8389830F900FBE5E
:102D000089819A810F900F90CF91DF910895DF9381
:102D1000CF9300D00F92CDB7DEB719828091D50244
:102D20009091D6029B838A838A819B810F900F901A
:102D30000F90CF91DF910895DF93CF93CDB7DEB79A
:102D40008091D402CF91DF910895DF93CF9300D08B
:102D500000D000D0CDB7DEB79C838B838B819C8164
:102D6000009739F48091D1029091D2029E838D8395
:102D700004C08B819C819E838D838D819E819A83EB
:102D8000898389819A81499626960FB6F894DEBF89
:102D90000FBECDBFCF91DF910895DF93CF93CDB715
:102DA000DEB729970FB6F894DEBF0FBECDBF1D82E8
:102DB0008091E102882309F0C0C08091D5029091F2
:102DC000D60201969C838B838B819C819093D60243
:102DD0008093D5028B819C810097D9F48091180350
:102DE000909119039A83898380911A0390911B0310
:102DF000909319038093180389819A8190931B0300
:102E000080931A038091DB028F5F8093DB020E9424
:102E1000691A2091DD023091DE028B819C8182173C
:102E2000930708F471C0E0911803F09119038081B1
:102E3000882339F48FEF9FEF9093DE028093DD02B9
:102E400063C0E0911803F09119030580F681E02D2D
:102E50008681978199878887E885F9858281938122
:102E60009F838E832B813C818E819F812817390718
:102E700038F48E819F819093DE028093DD0244C0FE
:102E80008885998502960E941508E885F9858489C8
:102E90009589009729F0888599850C960E941508D8
:102EA000E885F98596898091D702891728F4E88505
:102EB000F98586898093D702E885F9858689282F48
:102EC00030E0C901880F991F880F991F880F991F3B
:102ED000820F931FAC014E515D4F888599859C01EF
:102EE0002E5F3F4FCA01B9010E946507E885F98549
:102EF0009689E091D102F091D2028689981708F460
:102F000092CF81E08D838FCFE091D102F091D202F8
:102F10008689282F30E0C901880F991F880F991FD3
:102F2000880F991F820F931FFC01EE51FD4F808186
:102F3000823040F081E08D8305C08091D9028F5F9F
:102F40008093D9028091DA02882311F081E08D8389
:102F50008D8129960FB6F894DEBF0FBECDBFCF91FD
:102F6000DF910895DF93CF9300D00F92CDB7DEB7F6
:102F70008091E102882321F081E08093DA0259C038
:102F80001092DA028091D7028B8303C08B8181502B
:102F90008B838B81282F30E0C901880F991F880F00
:102FA000991F880F991F820F931FFC01EE51FD4F4F
:102FB0008081882359F38B81282F30E0C901880F45
:102FC000991F880F991F880F991F820F931F8E5189
:102FD0009D4F9A838983E981FA810180F281E02DF6
:102FE00082819381E981FA8192838183E981FA81E7
:102FF0002181328189819A8103962817390759F4F2
:10300000E981FA810180F281E02D82819381E98159
:10301000FA8192838183E981FA810180F281E02D36
:10302000868197819093D2028093D1028B81809385
:10303000D7020F900F900F90CF91DF910895DF93FB
:10304000CF9300D000D0CDB7DEB79A8389837C833D
:103050006B838091D1029091D2029C01245F3F4FFB
:1030600089819A81B9010E94A9078B819C8161E0C5
:103070000E94631E0F900F900F900F90CF91DF91E1
:103080000895DF93CF9300D000D000D0CDB7DEB746
:103090009A8389837C836B835E834D83E091D10225
:1030A000F091D2028B819C81906895878487809172
:1030B000D1029091D2029C01245F3F4F89819A8175
:1030C000B9010E9465078D819E8161E00E94631EA7
:1030D00026960FB6F894DEBF0FBECDBFCF91DF911D
:1030E0000895DF93CF9300D000D00F92CDB7DEB715
:1030F0009D838C83EC81FD810580F681E02D8681A6
:1031000097819B838A838A819B810C960E941508F4
:103110008091E102882361F58A819B8102960E9459
:103120001508EA81FB8196898091D702891728F4D6
:10313000EA81FB8186898093D702EA81FB818689B7
:10314000282F30E0C901880F991F880F991F880F19
:10315000991F820F931FAC014E515D4F8A819B8155
:103160009C012E5F3F4FCA01B9010E9465070AC04A
:103170008A819B819C01245F3F4F8CE193E0B901E0
:103180000E946507EA81FB819689E091D102F09166
:10319000D2028689891730F481E0898381E08093A7
:1031A000DA0201C0198289810F900F900F900F9061
:1031B0000F90CF91DF910895DF93CF9300D000D08F
:1031C00000D0CDB7DEB79C838B837E836D838D81EA
:1031D0009E819068EB81FC8191838083EB81FC81EF
:1031E000868197819A8389838B819C810E941508AF
:1031F00089819A8102960E941508E981FA8196894F
:103200008091D702891728F4E981FA818689809311
:10321000D702E981FA818689282F30E0C901880F19
:10322000991F880F991F880F991F820F931FAC0158
:103230004E515D4F89819A819C012E5F3F4FCA019B
:10324000B9010E946507E981FA819689E091D1026E
:10325000F091D2028689891718F481E08093DA020E
:1032600026960FB6F894DEBF0FBECDBFCF91DF918B
:103270000895DF93CF9300D0CDB7DEB79A838983CB
:103280000FB6F8940F928091DB02E981FA81808376
:103290008091D5029091D602E981FA81928381834F
:1032A0000F900FBE0F900F90CF91DF910895DF9395
:1032B000CF9300D0CDB7DEB79A8389838091DB02AC
:1032C000E981FA8180838091D5029091D602E981CB
:1032D000FA81928381830F900F90CF91DF910895AF
:1032E000DF93CF93CDB7DEB729970FB6F894DEBF43
:1032F0000FBECDBF9F838E83798768870FB6F89402
:103300000F928091D5029091D6029C838B83EE819F
:10331000FF81218132818B819C81821B930B9A8357
:103320008983EE81FF8190818091DB02981761F0A3
:10333000EE81FF81218132818B819C8182179307ED
:1033400018F081E08D8323C0E885F98520813181E3
:1033500089819A8182179307A0F4E885F9852081F5
:10336000318189819A81A901481B590BCA01E885DD
:10337000F985918380838E819F810E9457191D82D8
:1033800006C0E885F9851182108281E08D830F9057
:103390000FBE8D8129960FB6F894DEBF0FBECDBF4C
:1033A000CF91DF910895DF93CF93CDB7DEB781E062
:1033B0008093DA02CF91DF910895DF93CF9300D00D
:1033C000CDB7DEB79A8389830E94241AFDCFDF939D
:1033D000CF930F92CDB7DEB7198213C08981282F02
:1033E00030E0C901880F991F880F991F880F991F16
:1033F000820F931F8E519D4F0E942B0789818F5FF3
:1034000089838981843050F386E093E00E942B0702
:103410008FE093E00E942B078CE193E00E942B0742
:1034200085E293E00E942B0786E093E090931903D6
:10343000809318038FE093E090931B0380931A030B
:103440000F90CF91DF910895DF93CF9300D0CDB748
:10345000DEB720C00FB6F8940F92E0912A03F091E6
:103460002B03868197819A83898389819A81029629
:103470000E9415088091D40281508093D4028091DB
:10348000D30281508093D3020F900FBE89819A811D
:103490000E94531A8091D3028823E1F60F900F9077
:1034A000CF91DF910895DF93CF9300D0CDB7DEB7F2
:1034B0009A838983E981FA818789908D0E94050723
:1034C00089819A810E9405070F900F90CF91DF911B
:1034D0000895DF93CF9300D0CDB7DEB7E091180306
:1034E000F09119038081882339F48FEF9FEF909337
:1034F000DE028093DD0213C0E0911803F0911903FE
:103500000580F681E02D868197819A838983E98100
:10351000FA81828193819093DE028093DD020F9085
:103520000F90CF91DF910895DF93CF9300D0CDB767
:10353000DEB7E091D102F091D202848595859A831D
:103540008983A091D102B091D202E091D102F09191
:10355000D2028689282F30E084E090E0821B930B12
:103560001D969C938E931C9789819A810F900F9042
:10357000CF91DF910895DF93CF93CDB7DEB7279733
:103580000FB6F894DEBF0FBECDBF8D837F836E83F1
:103590000FB6F8940F92E091D102F091D20281A17E
:1035A00092A1A3A1B4A10097A105B10589F4E0916E
:1035B000D102F091D20281E085A38E819F81009794
:1035C00039F08E819F8161E00E94631E0E94AA0AE9
:1035D0000F900FBE0FB6F8940F92E091D102F091C8
:1035E000D20281A192A1A3A1B4A189839A83AB83C2
:1035F000BC8389819A81AB81BC810097A105B1050B
:10360000D9F08D81882349F0E091D102F091D20266
:1036100011A212A213A214A20FC0E091D102F09144
:10362000D20289819A81AB81BC810197A109B1093C
:1036300081A392A3A3A3B4A3E091D102F091D202FB
:1036400015A20F900FBE89819A81AB81BC81BC010C
:10365000CD0127960FB6F894DEBF0FBECDBFCF9138
:10366000DF910895EF92FF920F931F93DF93CF9313
:10367000CDB7DEB72D970FB6F894DEBF0FBECDBF26
:103680006A837B838C839D832E833F8348875987FE
:103690001B870A87FD86EC860FB6F8940F92E0919F
:1036A000D102F091D20285A1823049F1E091D1029C
:1036B000F091D20221A132A143A154A18A819B8120
:1036C000AC81BD8180959095A095B0958223932380
:1036D000A423B52381A392A3A3A3B4A3E091D10211
:1036E000F091D20281E085A38C859D85009739F009
:1036F0008C859D8561E00E94631E0E94AA0A0F903E
:103700000FBE0FB6F8940F928A859B85009771F0D3
:10371000E091D102F091D20281A192A1A3A1B4A122
:10372000EA85FB8580839183A283B383E091D102F4
:10373000F091D20285A1823011F019821AC0E09175
:10374000D102F091D20221A132A143A154A18E81D4
:103750009F81A885B98580959095A095B095822385
:103760009323A423B52381A392A3A3A3B4A381E0AD
:103770008983E091D102F091D20215A20F900FBE81
:1037800089812D960FB6F894DEBF0FBECDBFCF91C5
:10379000DF911F910F91FF90EF9008950F931F936A
:1037A000DF93CF93CDB7DEB72F970FB6F894DEBF78
:1037B0000FBECDBF9E838D834F83588769877A87DD
:1037C0002B871D870C8781E08A838D819E819C8356
:1037D0008B830FB6F8940F928C859D85009761F0CE
:1037E000EB81FC8181A192A1A3A1B4A1EC85FD850F
:1037F00080839183A283B383EB81FC8185A189833C
:10380000EB81FC8182E085A38B85282F30E03F8708
:103810002E878E859F858230910559F12E853F85B3
:103820002330310534F48E859F858130910561F018
:103830004AC02E853F852330310559F18E859F85FD
:103840008430910589F13FC0EB81FC8121A132A137
:1038500043A154A18F819885A985BA85822B932B8A
:10386000A42BB52BEB81FC8181A392A3A3A3B4A3CA
:103870002AC0EB81FC8181A192A1A3A1B4A10196F0
:10388000A11DB11DEB81FC8181A392A3A3A3B4A3CD
:103890001AC0EB81FC818F819885A985BA8581A3A7
:1038A00092A3A3A3B4A30FC08981823059F0EB8106
:1038B000FC818F819885A985BA8581A392A3A3A352
:1038C000B4A301C01A8289818130B9F58B819C81B2
:1038D00002960E941508EB81FC8196898091D7029F
:1038E000891728F4EB81FC8186898093D702EB81CC
:1038F000FC818689282F30E0C901880F991F880F25
:10390000991F880F991F820F931FAC014E515D4F75
:103910008B819C819C012E5F3F4FCA01B9010E949F
:103920006507EB81FC819689E091D102F091D2028A
:103930008689891710F40E94AA0A0F900FBE8A8107
:103940002F960FB6F894DEBF0FBECDBFCF91DF919B
:103950001F910F910895EF92FF920F931F93DF93A2
:10396000CF93CDB7DEB762970FB6F894DEBF0FBE28
:10397000CDBF9F838E83488759876A877B872C8733
:103980001E870D87F88AEF8681E08A838E819F816A
:103990009D838C8319828D859E85009761F0EC81D3
:1039A000FD8181A192A1A3A1B4A1ED85FE858083B3
:1039B0009183A283B383EC81FD8185A18B83EC810C
:1039C000FD8182E085A38C85282F30E03A8B298BFE
:1039D00089899A898230910559F129893A89233058
:1039E000310534F489899A898130910561F04AC0A2
:1039F00029893A892330310559F189899A89843096
:103A0000910589F13FC0EC81FD8121A132A143A143
:103A100054A188859985AA85BB85822B932BA42BDD
:103A2000B52BEC81FD8181A392A3A3A3B4A32AC0EB
:103A3000EC81FD8181A192A1A3A1B4A10196A11D58
:103A4000B11DEC81FD8181A392A3A3A3B4A31AC0ED
:103A5000EC81FD8188859985AA85BB8581A392A388
:103A6000A3A3B4A30FC08B81823059F0EC81FD81F8
:103A700088859985AA85BB8581A392A3A3A3B4A3B6
:103A800001C01A828B81813009F04FC08091E10220
:103A9000882361F58C819D8102960E941508EC8136
:103AA000FD8196898091D702891728F4EC81FD81E8
:103AB00086898093D702EC81FD818689282F30E0AA
:103AC000C901880F991F880F991F880F991F820FAE
:103AD000931FAC014E515D4F8C819D819C012E5FE7
:103AE0003F4FCA01B9010E9465070AC08C819D81C0
:103AF0009C01245F3F4F8CE193E0B9010E94650770
:103B0000EC81FD819689E091D102F091D202868903
:103B1000891758F48F859889009721F0EF85F889E7
:103B200081E0808381E08093DA028A8162960FB619
:103B3000F894DEBF0FBECDBFCF91DF911F910F91E3
:103B4000FF90EF900895DF93CF93CDB7DEB728971E
:103B50000FB6F894DEBF0FBECDBF9E838D837887EE
:103B60006F838D819E819C838B831982EB81FC8185
:103B700085A18A83EB81FC8182E085A3EB81FC81B6
:103B800081A192A1A3A1B4A10196A11DB11DEB81B8
:103B9000FC8181A392A3A3A3B4A38A81813009F0FD
:103BA0004FC08091E102882361F58B819C81029650
:103BB0000E941508EB81FC8196898091D7028917B4
:103BC00028F4EB81FC8186898093D702EB81FC810C
:103BD0008689282F30E0C901880F991F880F991F07
:103BE000880F991F820F931FAC014E515D4F8B813F
:103BF0009C819C012E5F3F4FCA01B9010E9465075D
:103C00000AC08B819C819C01245F3F4F8CE193E033
:103C1000B9010E946507EB81FC819689E091D10290
:103C2000F091D2028689891758F48F819885009780
:103C300021F0EF81F88581E0808381E08093DA02D2
:103C400028960FB6F894DEBF0FBECDBFCF91DF919F
:103C50000895DF93CF93CDB7DEB727970FB6F894CB
:103C6000DEBF0FBECDBF9D838C838C819D8100976D
:103C700039F48091D1029091D2029F838E8304C047
:103C80008C819D819F838E838E819F819B838A837C
:103C90000FB6F8940F92EA81FB8185A1823031F44E
:103CA000EA81FB8115A281E0898301C019820F900E
:103CB0000FBE898127960FB6F894DEBF0FBECDBF29
:103CC000CF91DF910895DF93CF93CDB7DEB72797DC
:103CD0000FB6F894DEBF0FBECDBF9E838D836F837A
:103CE0008091D5029091D6029A8389838091D102E6
:103CF0009091D20202960E94150829813A818D8105
:103D00009E81820F931F9C838B83E091D102F0915F
:103D1000D2028B819C81938382832B813C81898118
:103D20009A812817390770F480911A0390911B0328
:103D30002091D1023091D2022E5F3F4FB9010E94F3
:103D4000A9071EC040911803509119038091D10218
:103D50009091D2029C012E5F3F4FCA01B9010E948F
:103D6000A9072091DD023091DE028B819C818217B0
:103D7000930730F48B819C819093DE028093DD0267
:103D800027960FB6F894DEBF0FBECDBFCF91DF915F
:103D90000895FB01DC0102C001900D92415050409A
:083DA000D8F70895F894FFCF55
:103DA8005461736B5F31005461736B5F3200494437
:043DB8004C45000076
:00000001FF
