:100000000C942A000C943F000C943F000C943F0089
:100010000C943F000C943F000C943F000C943F0064
:100020000C943F000C943F000C943F000C943F0054
:100030000C943F000C943F000C943F000C943F0044
:100040000C943F000C943F000C943F000C943F0034
:100050000C943F0011241FBECFE5D8E0DEBFCDBF1A
:1000600011E0A0E6B0E0EAEEF9E202C005900D92E0
:10007000A838B107D9F70E94CD130C94F3140C944F
:100080000000EF92FF920F931F937B018C0120E001
:1000900030E040E05FE40E94ED0388238CF0C8016B
:1000A000B70120E030E040E05FE40E94B9010E9427
:1000B0004D049B01AC01205030404040504806C0E8
:1000C000C801B7010E944D049B01AC01B901CA01EE
:1000D0001F910F91FF90EF900895A0E0B0E0E3E74B
:1000E000F0E00C94BC14DC012B01FA019C919230DD
:1000F00008F439C1EB018881823008F433C19430AF
:1001000069F4843009F02FC111969C91119789816F
:10011000981709F428C1A0E6B0E025C1843009F49D
:1001200021C18230A9F4923009F01DC19A01AD01BC
:1001300088E0EA010990AE01E90109929E0181502F
:10014000C1F7E201898111969C918923818308C1BD
:10015000923009F407C112962D903C901397EB0151
:100160008A819B811496AD90BD90CD90DC901797BD
:10017000EC80FD800E811F819101281B390BB90194
:1001800037FF04C066277727621B730B6032710547
:100190000CF061C0121613066CF537014801062EEB
:1001A00004C096948794779467940A94D2F721E0D8
:1001B00030E040E050E004C0220F331F441F551FC1
:1001C0006A95D2F721503040404050402E213F21C7
:1001D00040235123211531054105510521F021E02E
:1001E00030E040E050E079018A01E628F72808294C
:1001F00019293CC0232BD1F1260E371E35014601AB
:10020000062E04C096948794779467940A94D2F744
:1002100021E030E040E050E004C0220F331F441FD3
:10022000551F6A95D2F721503040404050402A2156
:100230003B214C215D21211531054105510521F05E
:1002400021E030E040E050E059016A01A628B728DB
:10025000C828D9280BC0821593052CF01C01AA24AC
:10026000BB24650103C0EE24FF24870111969C91F5
:10027000D20111968C91981709F445C0992339F051
:10028000A80197012A193B094C095D0906C0A6017E
:1002900095012E193F09400B510B57FD08C01182E3
:1002A0003382228224833583468357831DC081E0B5
:1002B00081833382228288279927DC01821B930B5A
:1002C000A40BB50B84839583A683B7830DC0220F3F
:1002D000331F441F551F24833583468357838281F0
:1002E000938101979383828324813581468157814D
:1002F000DA01C9010197A109B1098F5F9F4FAF4F83
:10030000BF4328F30BC0918333822282EA0CFB1C8B
:100310000C1D1D1DE482F5820683178383E0808314
:10032000248135814681578157FF1AC0C901AA2708
:1003300097FDA095BA2F81709070A070B0705695FF
:10034000479537952795822B932BA42BB52B848328
:100350009583A683B7838281938101969383828359
:10036000DF0101C0D201CD01CDB7DEB7E2E10C94CF
:10037000D814A0E2B0E0EFEBF1E00C94C81469836C
:100380007A838B839C832D833E834F835887E9E058
:10039000EE2EF12CEC0EFD1ECE010196B7010E944F
:1003A0003E068E010F5E1F4FCE010596B8010E94DA
:1003B0003E068A8991E089278A8BC701B801AE0180
:1003C000475E5F4F0E946D000E946905A096E6E0BF
:1003D0000C94E414A0E2B0E0E0EFF1E00C94C81457
:1003E00069837A838B839C832D833E834F835887D5
:1003F000F9E0EF2EF12CEC0EFD1ECE010196B701B7
:100400000E943E068E010F5E1F4FCE010596B80179
:100410000E943E06C701B801AE01475E5F4F0E94D1
:100420006D000E946905A096E6E00C94E414A0E239
:10043000B0E0EDE1F2E00C94BC1469837A838B8325
:100440009C832D833E834F835887CE010196BE0146
:10045000675F7F4F0E943E06CE010596BE016F5E2C
:100460007F4F0E943E069985923088F089898230BC
:10047000C8F0943019F4823051F404C0843029F467
:10048000923081F480E690E0C6C0923049F420E0DA
:100490009A858A89981321E02A87CE010996BBC0E4
:1004A000823049F420E09A858A89981321E02A8BCA
:1004B000CE014196B0C02D843E844F8458886D880B
:1004C0007E888F88988CEE24FF248701AA24BB2481
:1004D000650140E050E060E070E0E0E0F0E0C10184
:1004E00081709070892BE9F0E60CF71C081D191D2E
:1004F0009A01AB012A0D3B1D4C1D5D1D80E090E073
:10050000A0E0B0E0E614F7040805190520F481E046
:1005100090E0A0E0B0E0BA01A901480F591F6A1F9E
:100520007B1FAA0CBB1CCC1CDD1C97FE08C081E005
:1005300090E0A0E0B0E0A82AB92ACA2ADB2A3196C6
:10054000E032F10549F0660C771C881C991C569422
:10055000479437942794C3CFFA85EA892B893C893D
:100560008B859C85280F391F2E5F3F4F17C0CA010E
:1005700081709070892B61F016950795F794E79438
:1005800080E090E0A0E0B0E8E82AF92A0A2B1B2BD3
:1005900076956795579547952F5F3F4F77FDE7CF46
:1005A0000CC0440F551F661F771F17FD4160EE0CEE
:1005B000FF1C001F111F21503040403090E05907B0
:1005C00090E0690790E4790760F32B8F3C8FDB01A3
:1005D000CA018F779070A070B07080349105A1052A
:1005E000B10561F447FD0AC0E114F10401051105EC
:1005F00029F0405C5F4F6F4F7F4F40781A8EFE1797
:1006000011F081E08A8F4D8F5E8F6F8F78A383E02A
:10061000898FCE0149960E946905A096E2E10C946B
:10062000D814A8E1B0E0E7E1F3E00C94C4146983C6
:100630007A838B839C832D833E834F835887B9E0D5
:10064000EB2EF12CEC0EFD1ECE010196B7010E949F
:100650003E068E010F5E1F4FCE010596B8010E9427
:100660003E062985223008F47EC03989323010F4E4
:10067000B8017CC08A859A8989278A87243011F03D
:10068000223031F4231709F06EC060E670E06EC0CE
:10069000343039F41D861E861F86188A1C861B86F8
:1006A00004C0323021F484E08987B7015FC02B8514
:1006B0003C858B899C89281B390B3C872B87ED84D3
:1006C000FE840F851889AD88BE88CF88D88CEA143F
:1006D000FB040C051D0540F4EE0CFF1C001F111F50
:1006E000215030403C872B8720E030E040E050E054
:1006F00080E090E0A0E0B0E460E070E0EA14FB0489
:100700000C051D0540F0282B392B4A2B5B2BEA18D2
:10071000FB080C091D09B695A79597958795EE0CD2
:10072000FF1C001F111F6F5F7F4F6F31710531F785
:10073000DA01C9018F779070A070B0708034910594
:10074000A105B10561F427FD0AC0E114F10401051A
:10075000110529F0205C3F4F4F4F5F4F20782D87C8
:100760003E874F87588BBE01675F7F4FCB010E944A
:1007700069056896EAE00C94E014A8E1B0E0E3ECC7
:10078000F3E00C94C81469837A838B839C832D8354
:100790003E834F83588789E0E82EF12CEC0EFD1E36
:1007A000CE010196B7010E943E068E010F5E1F4FDB
:1007B000CE010596B8010E943E068985823040F040
:1007C0008989823028F0C701B8010E94B60601C0AD
:1007D0008FEF6896E6E00C94E414A8E1B0E0E3EF54
:1007E000F3E00C94C81469837A838B839C832D83F4
:1007F0003E834F83588789E0E82EF12CEC0EFD1ED6
:10080000CE010196B7010E943E068E010F5E1F4F7A
:10081000CE010596B8010E943E068985823040F0DF
:100820008989823028F0C701B8010E94B60601C04C
:100830008FEF6896E6E00C94E414A8E1B0E0E3E200
:10084000F4E00C94C81469837A838B839C832D8392
:100850003E834F83588789E0E82EF12CEC0EFD1E75
:10086000CE010196B7010E943E068E010F5E1F4F1A
:10087000CE010596B8010E943E068985823040F07F
:100880008989823028F0C701B8010E94B60601C0EC
:1008900081E06896E6E00C94E414ACE0B0E0E3E5B7
:1008A000F4E00C94CC1469837A838B839C83CE010F
:1008B0000196BE016B5F7F4F0E943E068D818230A4
:1008C00061F1823050F1843021F48E81882351F11E
:1008D0002EC02F81388537FD20C06E812F31310524
:1008E0001CF06623F9F023C08EE190E0821B930B8D
:1008F00029853A854B855C8504C056954795379583
:1009000027958A95D2F76623B1F05095409530959A
:1009100021953F4F4F4F5F4F0EC020E030E040E049
:1009200050E009C02FEF3FEF4FEF5FE704C020E03A
:1009300030E040E050E8B901CA012C96E2E00C94A6
:10094000E814A8E0B0E0E7EAF4E00C94C4147B01FA
:100950008C01611571058105910519F482E0898387
:1009600060C083E089838EE1C82ED12CDC82CB82EB
:10097000ED82FE820F831887C801B7010E941A0515
:10098000FC013197F7FF3BC0222733272E1B3F0B7B
:1009900057016801022E04C0D694C794B794A79457
:1009A0000A94D2F740E050E060E070E081E090E02F
:1009B000A0E0B0E004C0880F991FAA1FBB1F2A95B2
:1009C000D2F70197A109B1098E219F21A023B1235C
:1009D0000097A105B10521F041E050E060E070E032
:1009E0004A295B296C297D294D835E836F83788733
:1009F0008EE190E08E1B9F0B9C838B8312C03097FF
:100A000081F00E2E04C0EE0CFF1C001F111F0A9473
:100A1000D2F7ED82FE820F831887CE1ADF0ADC82BE
:100A2000CB821A82CE0101960E9469052896EAE0DF
:100A30000C94E014EF92FF920F931F937B018C01B3
:100A400080E0E81680E0F80681E0080780E01807FB
:100A500088F48FEFE816F1040105110531F028F054
:100A600088E090E0A0E0B0E017C080E090E0A0E077
:100A7000B0E012C080E0E81680E0F80680E00807E9
:100A800081E0180728F088E190E0A0E0B0E004C021
:100A900080E190E0A0E0B0E020E230E040E050E013
:100AA000281B390B4A0B5B0B04C016950795F7946E
:100AB000E7948A95D2F7F701E859FF4F8081281B08
:100AC000310941095109C9011F910F91FF90EF9020
:100AD0000895DF92EF92FF920F931F93FC01E48041
:100AE000F58006811781D1808081823048F480E0D2
:100AF00090E0A0E1B0E0E82AF92A0A2B1B2BA5C060
:100B0000843009F49FC0823021F4EE24FF24870151
:100B100005C0E114F1040105110519F4E0E0F0E06D
:100B200096C0628173819FEF623879070CF05BC0D9
:100B300022E83FEF261B370B2A3131052CF020E04D
:100B400030E040E050E02AC0B801A701022E04C006
:100B500076956795579547950A94D2F781E090E08E
:100B6000A0E0B0E004C0880F991FAA1FBB1F2A9500
:100B7000D2F70197A109B1098E219F21A023B123AA
:100B80000097A105B10521F081E090E0A0E0B0E080
:100B90009A01AB01282B392B4A2B5B2BDA01C901B7
:100BA0008F779070A070B07080349105A105B10569
:100BB00039F427FF09C0205C3F4F4F4F5F4F04C0FF
:100BC000215C3F4F4F4F5F4FE0E0F0E02030A0E06E
:100BD0003A07A0E04A07A0E45A0710F0E1E0F0E08D
:100BE00079018A0127C06038710564F5FB01E1587D
:100BF000FF4FD801C7018F779070A070B07080341C
:100C00009105A105B10539F4E7FE0DC080E490E03F
:100C1000A0E0B0E004C08FE390E0A0E0B0E0E80E18
:100C2000F91E0A1F1B1F17FF05C016950795F7949D
:100C3000E794319687E016950795F794E7948A959F
:100C4000D1F705C0EE24FF248701EFEFF0E06E2F0F
:100C5000679566276795902F9F77D794DD24D79463
:100C60008E2F8695492F462B582F5D29B701CA0133
:100C70001F910F91FF90EF90DF900895FC01DB0131
:100C8000408151812281622F6F7770E0221F2227DD
:100C9000221F9381892F880F822B282F30E0991FE4
:100CA0009927991F11969C93119721153105A9F544
:100CB000411551056105710511F482E037C082E8E4
:100CC0009FEF13969C938E9312979A01AB0167E066
:100CD000220F331F441F551F6A95D1F783E08C9371
:100CE0000DC0220F331F441F551F12968D919C91EA
:100CF0001397019713969C938E931297203080E060
:100D0000380780E0480780E4580758F314962D937D
:100D10003D934D935C93179708952F3F310579F4D8
:100D2000411551056105710519F484E08C9308950E
:100D300064FF03C081E08C9312C01C9210C02F5737
:100D4000304013963C932E93129783E08C9387E068
:100D5000440F551F661F771F8A95D1F7706414964C
:100D60004D935D936D937C93179708951F93DC01CA
:100D7000FB019C91923008F447C08081823008F4D6
:100D800043C0943051F411961C91843099F58181BF
:100D9000682F70E0611B71093FC0843021F09230F0
:100DA00031F48230B9F18181882389F12DC0119607
:100DB0001C9111978230F1F081811817D9F41296A5
:100DC0002D913C911397828193818217930794F020
:100DD00028173907BCF014968D919D910D90BC9108
:100DE000A02D2481358146815781281739074A076C
:100DF0005B0718F4112341F00AC082179307A40778
:100E0000B50740F4112319F061E070E005C06FEF01
:100E10007FEF02C060E070E0CB011F910895DF9387
:100E2000CF93CDB7DEB7A6E2B0E0E6E2F0E0808196
:100E300084608C93A6E2B0E0E6E2F0E0808182601C
:100E40008C93A6E2B0E0E6E2F0E0808181608C93D2
:100E5000A7E2B0E0E7E2F0E080818F778C93A7E231
:100E6000B0E0E7E2F0E0808180648C93A7E2B0E03C
:100E7000E7E2F0E0808180628C93A6E2B0E0E6E2F7
:100E8000F0E0808180688C93CF91DF910895DF93AB
:100E9000CF9300D00F92CDB7DEB78B83A7E2B0E03F
:100EA000E7E2F0E08081807E8C93A7E2B0E0E7E2A9
:100EB000F0E090818B81892B8C93A6E2B0E0E6E292
:100EC000F0E0808180648C93E6E2F0E0808182959E
:100ED0008F70882F90E0817090700097A9F3E4E202
:100EE000F0E080818295869586958370882F90E0CA
:100EF0009A838983E5E2F0E08081882F90E0880F73
:100F0000991F880F991F9C0189819A81822B932BAD
:100F10009A83898389819A810F900F900F90CF9146
:100F2000DF910895DF93CF9300D000D000D0CDB7EC
:100F3000DEB78A836B834C8319828A81843018F0F0
:100F400081E08983E0C08B81883018F082E089835A
:100F5000DAC08C81882331F08C81813019F083E0F4
:100F60008983D1C08A81282F30E03E832D838D81F3
:100F70009E818130910509F443C02D813E8122304C
:100F800031052CF48D819E81009771F0BCC02D81BC
:100F90003E812230310509F45FC08D819E8183300E
:100FA000910509F485C0AFC08C818130A1F4ABE319
:100FB000B0E0EBE3F0E08081482F8B81282F30E018
:100FC00081E090E0022E02C0880F991F0A94E2F798
:100FD000842B8C9398C0ABE3B0E0EBE3F0E080812E
:100FE000482F8B81282F30E081E090E0022E02C054
:100FF000880F991F0A94E2F7809584238C9383C00D
:101000008C818130A1F4A8E3B0E0E8E3F0E08081D6
:10101000482F8B81282F30E081E090E0022E02C023
:10102000880F991F0A94E2F7842B8C936CC0A8E375
:10103000B0E0E8E3F0E08081482F8B81282F30E09A
:1010400081E090E0022E02C0880F991F0A94E2F717
:10105000809584238C9357C08C818130A1F4A5E3C3
:10106000B0E0E5E3F0E08081482F8B81282F30E06D
:1010700081E090E0022E02C0880F991F0A94E2F7E7
:10108000842B8C9340C0A5E3B0E0E5E3F0E08081E1
:10109000482F8B81282F30E081E090E0022E02C0A3
:1010A000880F991F0A94E2F7809584238C932BC0B4
:1010B0008C818130A1F4A2E3B0E0E2E3F0E0808132
:1010C000482F8B81282F30E081E090E0022E02C073
:1010D000880F991F0A94E2F7842B8C9314C0A2E323
:1010E000B0E0E2E3F0E08081482F8B81282F30E0F0
:1010F00081E090E0022E02C0880F991F0A94E2F767
:10110000809584238C93898126960FB6F894DEBF50
:101110000FBECDBFCF91DF910895DF93CF9300D065
:1011200000D000D0CDB7DEB78A836B834C831982A1
:101130008A81843018F081E08983E0C08B81883017
:1011400018F082E08983DAC08C81882331F08C81A9
:10115000813019F083E08983D1C08A81282F30E063
:101160003E832D838D819E818130910509F443C09A
:101170002D813E81223031052CF48D819E81009796
:1011800071F0BCC02D813E812230310509F45FC071
:101190008D819E818330910509F485C0AFC08C811B
:1011A0008130A1F4AAE3B0E0EAE3F0E08081482FC7
:1011B0008B81282F30E081E090E0022E02C0880F62
:1011C000991F0A94E2F7842B8C9398C0AAE3B0E0AD
:1011D000EAE3F0E08081482F8B81282F30E081E026
:1011E00090E0022E02C0880F991F0A94E2F78095C2
:1011F00084238C9383C08C818130A1F4A7E3B0E079
:10120000E7E3F0E08081482F8B81282F30E081E0F8
:1012100090E0022E02C0880F991F0A94E2F7842BF7
:101220008C936CC0A7E3B0E0E7E3F0E08081482F47
:101230008B81282F30E081E090E0022E02C0880FE1
:10124000991F0A94E2F7809584238C9357C08C8170
:101250008130A1F4A4E3B0E0E4E3F0E08081482F22
:101260008B81282F30E081E090E0022E02C0880FB1
:10127000991F0A94E2F7842B8C9340C0A4E3B0E05A
:10128000E4E3F0E08081482F8B81282F30E081E07B
:1012900090E0022E02C0880F991F0A94E2F7809511
:1012A00084238C932BC08C818130A1F4A1E3B0E026
:1012B000E1E3F0E08081482F8B81282F30E081E04E
:1012C00090E0022E02C0880F991F0A94E2F7842B47
:1012D0008C9314C0A1E3B0E0E1E3F0E08081482FFB
:1012E0008B81282F30E081E090E0022E02C0880F31
:1012F000991F0A94E2F7809584238C93898126961E
:101300000FB6F894DEBF0FBECDBFCF91DF91089529
:10131000DF93CF93CDB7DEB727970FB6F894DEBF34
:101320000FBECDBF8A836B835D834C8319828A8114
:10133000843018F081E0898376C08B81883018F082
:1013400082E0898370C08A81282F30E03F832E831A
:101350004E815F814130510559F18E819F818230EC
:10136000910534F42E813F812115310569F05BC070
:101370004E815F814230510579F18E819F818330AA
:10138000910509F43DC04FC0E9E3F0E08081282FCA
:1013900030E08B81882F90E0A90102C055954795D8
:1013A0008A95E2F7CA018170EC81FD8180833BC0A0
:1013B000E6E3F0E08081282F30E08B81882F90E0F9
:1013C000A90102C0559547958A95E2F7CA01817037
:1013D000EC81FD81808327C0E3E3F0E08081282F4A
:1013E00030E08B81882F90E0A90102C05595479588
:1013F0008A95E2F7CA018170EC81FD81808313C078
:10140000E0E3F0E08081282F30E08B81882F90E0AE
:10141000A90102C0559547958A95E2F7CA018170E6
:10142000EC81FD818083898127960FB6F894DEBF19
:101430000FBECDBFCF91DF910895DF93CF9300D042
:1014400000D00F92CDB7DEB78A836B8319828A8171
:10145000843018F081E0898332C08A81282F30E0FF
:101460003D832C838C819D8181309105D1F02C812D
:101470003D81223031052CF48C819D81009761F0F3
:101480001EC02C813D812230310581F08C819D81EF
:101490008330910581F013C0EBE3F0E08B81808312
:1014A0000EC0E8E3F0E08B81808309C0E5E3F0E063
:1014B0008B81808304C0E2E3F0E08B8180838981AB
:1014C0000F900F900F900F900F90CF91DF91089594
:1014D000DF93CF9300D000D00F92CDB7DEB78A83D1
:1014E0006B8319828A81843018F081E0898332C04D
:1014F0008A81282F30E03D832C838C819D8181302F
:101500009105D1F02C813D81223031052CF48C8164
:101510009D81009761F01EC02C813D8122303105F4
:1015200081F08C819D818330910581F013C0EAE3C5
:10153000F0E08B8180830EC0E7E3F0E08B81808355
:1015400009C0E4E3F0E08B81808304C0E1E3F0E0D4
:101550008B81808389810F900F900F900F900F9057
:10156000CF91DF910895DF93CF93CDB7DEB72F975B
:101570000FB6F894DEBF0FBECDBF8F8781E060E06D
:1015800040E00E94920781E061E040E00E94920703
:1015900082E06F850E941D0A81E062E041E00E94C6
:1015A000920780E090E0A0E0B0E48B879C87AD8755
:1015B000BE876B857C858D859E8520E030E04AEF77
:1015C00054E40E941702DC01CB018F839887A9871E
:1015D000BA876F81788589859A8520E030E040E878
:1015E0005FE30E941D0488232CF481E090E09E8339
:1015F0008D833FC06F81788589859A8520E03FEF94
:101600004FE757E40E94BD0318164CF56B857C85A7
:101610008D859E8520E030E040E251E40E94170273
:10162000DC01CB01BC01CD010E944100DC01CB01FA
:101630009E838D830FC088EC90E09C838B838B818D
:101640009C810197F1F79C838B838D819E8101970B
:101650009E838D838D819E81009769F714C06F8171
:10166000788589859A850E944100DC01CB019E83A3
:101670008D838D819E819A83898389819A81019747
:10168000F1F79A83898381E062E040E00E9492074B
:101690002F960FB6F894DEBF0FBECDBFCF91DF916E
:1016A0000895DF93CF93CDB7DEB72F970FB6F89499
:1016B000DEBF0FBECDBF8F8781E060E041E00E94BA
:1016C000920781E061E040E00E94920782E06F852E
:1016D0000E941D0A81E062E041E00E94920780E0E2
:1016E00090E0A0E0B0E48B879C87AD87BE876B85D8
:1016F0007C858D859E8520E030E04AEF54E40E9491
:101700001702DC01CB018F839887A987BA876F8185
:10171000788589859A8520E030E040E85FE30E9483
:101720001D0488232CF481E090E09E838D833FC0CC
:101730006F81788589859A8520E03FEF4FE757E4F0
:101740000E94BD0318164CF56B857C858D859E85A2
:1017500020E030E040E251E40E941702DC01CB01BE
:10176000BC01CD010E944100DC01CB019E838D8331
:101770000FC088EC90E09C838B838B819C810197C8
:10178000F1F79C838B838D819E8101979E838D834E
:101790008D819E81009769F714C06F817885898556
:1017A0009A850E944100DC01CB019E838D838D814F
:1017B0009E819A83898389819A810197F1F79A831F
:1017C000898381E062E040E00E9492072F960FB685
:1017D000F894DEBF0FBECDBFCF91DF910895DF93A8
:1017E000CF9300D00F92CDB7DEB79B838A83198247
:1017F0000EC08981282F30E08A819B81FC01E20F95
:10180000F31F80810E94510B89818F5F89838981B9
:10181000282F30E08A819B81FC01E20FF31F808139
:10182000882339F70F900F900F90CF91DF91089593
:10183000DF93CF9300D00F92CDB7DEB78A836B834F
:101840008B81882319F48A81898306C08B8181303A
:1018500019F48A81805C8983898180580E94B30A47
:101860000F900F900F90CF91DF910895DF93CF935A
:10187000CDB7DEB76A970FB6F894DEBF0FBECDBF07
:101880006F8B788F898F9A8F19828F89988DA98D08
:10189000BA8D80339105A105B105F1F58981282F15
:1018A00030E0CE010396FC01E20FF31F80E380835A
:1018B00089818F5F898330C08F89988DA98DBA8D7A
:1018C0002AE030E040E050E0BC01CD010E949A14D3
:1018D000DC01CB018A838981282F30E08A81482F5F
:1018E000405DCE010396FC01E20FF31F4083898126
:1018F0008F5F89838F89988DA98DBA8D2AE030E01A
:1019000040E050E0BC01CD010E949A14DA01C90107
:101910008F8B988FA98FBA8F8F89988DA98DBA8D4B
:1019200080339105A105B10539F68981282F30E072
:10193000CE010396FC01E20FF31F1082CE01039645
:1019400069810E942B11CE0103960E94EF0B6A96CB
:101950000FB6F894DEBF0FBECDBFCF91DF910895D3
:10196000DF93CF930F92CDB7DEB7898381E060E03C
:1019700040E00E94920789810E94D40C0F90CF9181
:10198000DF910895DF93CF930F92CDB7DEB78983B0
:1019900081E060E041E00E94920789810E94D40CBE
:1019A0000F90CF91DF910895DF93CF93CDB7DEB73E
:1019B00061970FB6F894DEBF0FBECDBF898B81E073
:1019C00061E040E00E949207188A1F8616C02F85AA
:1019D0008989882F90E00F8402C0959587950A9495
:1019E000E2F7982F917082E0622F492F0E949207B0
:1019F0008F8598890196988B8F878F8598898830F5
:101A000091052CF381E062E041E00E94920780E0C2
:101A100090E0A0E8BFE38B879C87AD87BE876B858E
:101A20007C858D859E8520E030E04AEF54E40E945D
:101A30001702DC01CB018F839887A987BA876F8152
:101A4000788589859A8520E030E040E85FE30E9450
:101A50001D0488232CF481E090E09E838D833FC099
:101A60006F81788589859A8520E03FEF4FE757E4BD
:101A70000E94BD0318164CF56B857C858D859E856F
:101A800020E030E040E251E40E941702DC01CB018B
:101A9000BC01CD010E944100DC01CB019E838D83FE
:101AA0000FC088EC90E09C838B838B819C81019795
:101AB000F1F79C838B838D819E8101979E838D831B
:101AC0008D819E81009769F714C06F817885898523
:101AD0009A850E944100DC01CB019E838D838D811C
:101AE0009E819A83898389819A810197F1F79A83EC
:101AF000898381E062E040E00E94920761960FB620
:101B0000F894DEBF0FBECDBFCF91DF9108950F9344
:101B10001F93DF93CF93CDB7DEB7CC54D0400FB631
:101B2000F894DEBF0FBECDBF82E06FEF0E94680A5F
:101B300081E060E041E00E948D0881E061E041E0E9
:101B40000E948D0881E062E041E00E948D08FE0164
:101B5000E75BFF4F80E090E0A0E2B2E480839183F6
:101B6000A283B3838E010B5B1F4FFE01E75BFF4F28
:101B7000608171818281938120E030E04AEF54E4FA
:101B80000E941702DC01CB01F80180839183A283BC
:101B9000B383FE01EB5BFF4F608171818281938192
:101BA00020E030E040E85FE30E941D04882344F415
:101BB000FE01ED5BFF4F81E090E09183808364C084
:101BC000FE01EB5BFF4F608171818281938120E098
:101BD0003FEF4FE757E40E94BD0318160CF043C0D7
:101BE000FE01E75BFF4F608171818281938120E07C
:101BF00030E040E251E40E941702DC01CB018E018B
:101C00000D5B1F4FBC01CD010E944100DC01CB01E7
:101C1000F801918380831FC0FE01EF5BFF4F88ECCA
:101C200090E091838083FE01EF5BFF4F8081918183
:101C30000197F1F7FE01EF5BFF4F91838083DE0197
:101C4000AD5BBF4FFE01ED5BFF4F8081918101973E
:101C500011969C938E93FE01ED5BFF4F80819181E5
:101C60000097D1F624C08E010D5B1F4FFE01EB5B88
:101C7000FF4F60817181828193810E944100DC016C
:101C8000CB01F80191838083FE01ED5BFF4F8081E2
:101C90009181FE01FF9691838083FE01FF968081F2
:101CA00091810197F1F7FE01FF969183808388E38C
:101CB0000E94B00C80E090E0A8E4B2E48BAF9CAF4F
:101CC000ADAFBEAF6BAD7CAD8DAD9EAD2BEA3AEA4C
:101CD0004AE250E40E941702DC01CB018FAB98AFBF
:101CE000A9AFBAAF6FA978AD89AD9AAD20E030E069
:101CF00040E85FE30E941D0488231CF481E08EAB62
:101D000091C06FA978AD89AD9AAD20E030E04FE782
:101D100053E40E94BD0318160CF07BC06BAD7CAD84
:101D20008DAD9EAD20E030E04AE754E40E941103FF
:101D3000DC01CB018AAB9BABACABBDAB6AA97BA989
:101D40008CA99DA920E030E04AEF54E40E941702DC
:101D5000DC01CB018EA79FA7A8ABB9AB6EA57FA571
:101D600088A999A920E030E040E85FE30E941D04C3
:101D700088232CF481E090E09DA78CA73FC06EA53E
:101D80007FA588A999A920E03FEF4FE757E40E947B
:101D9000BD0318164CF56AA97BA98CA99DA920E062
:101DA00030E040E251E40E941702DC01CB01BC01AB
:101DB000CD010E944100DC01CB019DA78CA70FC083
:101DC00088EC90E09BA78AA78AA59BA50197F1F7CD
:101DD0009BA78AA78CA59DA501979DA78CA78CA5DD
:101DE0009DA5009769F724C06EA57FA588A999A92C
:101DF0000E944100DC01CB019DA78CA78CA59DA56D
:101E000099A788A788A599A50197F1F799A788A709
:101E10000FC06FA978AD89AD9AAD0E944100DC0179
:101E2000CB018EAB8EA98FA38FA18A95F1F78FA3DB
:101E30008CE00E94B00C80E090E0A8E4B2E48BA3B8
:101E40009CA3ADA3BEA36BA17CA18DA19EA12BEAF7
:101E50003AEA4AE250E40E941702DC01CB018F8F7C
:101E600098A3A9A3BAA36F8D78A189A19AA120E014
:101E700030E040E85FE30E941D0488231CF481E009
:101E80008E8F91C06F8D78A189A19AA120E030E05A
:101E90004FE753E40E94BD0318160CF07BC06BA102
:101EA0007CA18DA19EA120E030E04AE754E40E948D
:101EB0001103DC01CB018A8F9B8FAC8FBD8F6A8DA4
:101EC0007B8D8C8D9D8D20E030E04AEF54E40E94A4
:101ED0001702DC01CB018E8B9F8BA88FB98F6E8987
:101EE0007F89888D998D20E030E040E85FE30E9493
:101EF0001D0488232CF481E090E09D8B8C8B3FC0E7
:101F00006E897F89888D998D20E03FEF4FE757E4F8
:101F10000E94BD0318164CF56A8D7B8D8C8D9D8DAE
:101F200020E030E040E251E40E941702DC01CB01E6
:101F3000BC01CD010E944100DC01CB019D8B8C8B4B
:101F40000FC088EC90E09B8B8A8B8A899B890197D4
:101F5000F1F79B8B8A8B8C899D8901979D8B8C8B4C
:101F60008C899D89009769F724C06E897F89888D47
:101F7000998D0E944100DC01CB019D8B8C8B8C895B
:101F80009D89998B888B888999890197F1F7998B1D
:101F9000888B0FC06F8D78A189A19AA10E94410002
:101FA000DC01CB018E8F8E8D8F878F858A95F1F71F
:101FB0008F8781E00E94B00C80E090E0A0E0B0E468
:101FC0008B879C87AD87BE876B857C858D859E853D
:101FD00020E030E04AEF54E40E941702DC01CB011C
:101FE0008F839887A987BA876F81788589859A8535
:101FF00020E030E040E85FE30E941D0488232CF4D9
:1020000081E090E09E838D833FC06F8178858985D4
:102010009A8520E03FEF4FE757E40E94BD03181672
:102020004CF56B857C858D859E8520E030E040E217
:1020300051E40E941702DC01CB01BC01CD010E94DA
:102040004100DC01CB019E838D830FC088EC90E0C2
:102050009C838B838B819C810197F1F79C838B837D
:102060008D819E8101979E838D838D819E810097B6
:1020700069F714C06F81788589859A850E9441002F
:10208000DC01CB019E838D838D819E819A83898320
:1020900089819A810197F1F79A838983C45BDF4F25
:1020A0000FB6F894DEBF0FBECDBFCF91DF911F9169
:1020B0000F910895DF93CF93CDB7DEB72A970FB670
:1020C000F894DEBF0FBECDBF9F838E83688749879C
:1020D0001D82EE81FF8180818B8383E089838885E7
:1020E000803198F58985823080F58985882F90E048
:1020F0000024969587950794969587950794982F31
:10210000802D982F8885890F80688C838C810E9410
:10211000B00C15C08C81803929F480EC8C838C81C3
:102120000E94B00CEE81FF8180810E94C20C8E81E2
:102130009F8101969F838E838C818F5F8C83EE813C
:10214000FF818081882331F704C081E08D838D81F8
:102150008A878A852A960FB6F894DEBF0FBECDBF58
:10216000CF91DF910895DF93CF93CDB7DEB76B9713
:102170000FB6F894DEBF0FBECDBF6F8B788F898FFF
:102180009A8F19828F89988DA98DBA8D0097A10594
:10219000B105F1F58981282F30E0CE010396FC01CD
:1021A000E20FF31F80E3808389818F5F898330C0D2
:1021B0008F89988DA98DBA8D2AE030E040E050E0FB
:1021C000BC01CD010E949A14DC01CB018A83898174
:1021D000282F30E08A81482F405DCE010396FC0114
:1021E000E20FF31F408389818F5F89838F89988DE8
:1021F000A98DBA8D2AE030E040E050E0BC01CD016D
:102200000E949A14DA01C9018F8B988FA98FBA8F17
:102210008F89988DA98DBA8D0097A105B10541F6DA
:102220008981282F30E0CE010396FC01E20FF31FD5
:102230001082CE01039669810E942B11CE01039674
:102240000E94EF0B6B960FB6F894DEBF0FBECDBFAA
:10225000CF91DF910895DF93CF9300D000D00F92FC
:10226000CDB7DEB79C838B836D831A828D818150BD
:10227000898319C08A81282F30E08B819C81AC0131
:10228000420F531F8981282F30E08B819C81280FBA
:10229000391FCA01B9010E945F118A818F5F8A8349
:1022A0008981815089839A818981981718F30F90C9
:1022B0000F900F900F900F90CF91DF910895DF93C3
:1022C000CF9300D000D00F92CDB7DEB79B838A8327
:1022D0007D836C83EA81FB8180818983EC81FD8130
:1022E0008081EA81FB818083EC81FD81898180830B
:1022F0000F900F900F900F900F90CF91DF91089556
:10230000DF93CF9300D000D00F92CDB7DEB78FEF21
:102310008B831A825EC08A81882F90E0FC01EC5882
:10232000FE4F908180E0692F40E00E949207198261
:102330003DC08981882F90E0FC01E059FE4F9081DB
:102340009E012C5F3F4F80E0692FA9010E94880900
:102350008C81882341F58981482F50E08A81282F7C
:1023600030E0CA01880F991F880F991F820F931FB1
:10237000FC01E858FE4F80818B830FC08981882F34
:1023800090E0FC01E059FE4F90819E012C5F3F4F91
:1023900080E0692FA9010E9488098C81882371F34C
:1023A0008B818D831CC089818F5F89838981843073
:1023B00008F4BFCF8A81882F90E0FC01EC58FE4FD3
:1023C000908180E0692F41E00E9492078A818F5FAF
:1023D0008A838A81843008F49ECF8B818D838D819E
:1023E0000F900F900F900F900F90CF91DF91089565
:1023F000DF93CF9300D000D000D0CDB7DEB79E835F
:102400008D831B8254C08B81882F90E0FC01E8599A
:10241000FE4F908180E0692F40E00E9492071A826F
:1024200034C08A81882F90E0FC01E459FE4F9081EE
:102430009E012C5F3F4F80E0692FA9010E9488090F
:102440008A81882F90E0880F991F880F991F982FF5
:102450008B81890F89838C81813051F48981282F68
:1024600030E08D819E81FC01E20FF31F10820AC0D3
:102470008981282F30E08D819E81FC01E20FF31FBE
:1024800081E080838A818F5F8A838A81843048F2E9
:102490008B81882F90E0FC01E859FE4F908180E00D
:1024A000692F41E00E9492078B818F5F8B838B8124
:1024B000843008F4A8CF26960FB6F894DEBF0FBE7E
:1024C000CDBFCF91DF910895DF93CF9300D0CDB7EB
:1024D000DEB71A820FC08A81882F90E0FC01E8598C
:1024E000FE4F908180E0692F41E00E948D088A8133
:1024F0008F5F8A838A81843070F319821BC089813F
:10250000882F90E0FC01E459FE4F908180E0692F14
:1025100040E00E948D088981882F90E0FC01E459F9
:10252000FE4F908180E0692F41E00E9492078981EF
:102530008F5F89838981843010F30F900F90CF9142
:10254000DF910895DF93CF9300D000D0CDB7DEB7F1
:102550009A8389837C836B83E981FA8180818130CE
:1025600091F4EB81FC818081282F30E081E090E0C4
:10257000B90140E050E00E94B3108B819C8101962C
:102580009C838B83E0C089819A81FC013196808194
:10259000813091F4EB81FC818081282F30E082E052
:1025A00090E0B90140E050E00E94B3108B819C8123
:1025B00001969C838B83C7C089819A81FC013296E6
:1025C0008081813091F4EB81FC818081282F30E083
:1025D00083E090E0B90140E050E00E94B3108B81AD
:1025E0009C8101969C838B83AEC089819A81FC017A
:1025F00034968081813091F4EB81FC818081282F99
:1026000030E084E090E0B90140E050E00E94B31077
:102610008B819C8101969C838B8395C089819A8153
:10262000FC0135968081813091F4EB81FC818081C1
:10263000282F30E085E090E0B90140E050E00E94B2
:10264000B3108B819C8101969C838B837CC0898194
:102650009A81FC0136968081813091F4EB81FC8176
:102660008081282F30E086E090E0B90140E050E022
:102670000E94B3108B819C8101969C838B8363C0E5
:1026800089819A81FC0138968081813091F4EB81B7
:10269000FC818081282F30E087E090E0B90140E0A4
:1026A00050E00E94B3108B819C8101969C838B83A8
:1026B0004AC089819A81FC0139968081813091F4E8
:1026C000EB81FC818081282F30E088E090E0B90127
:1026D00040E050E00E94B3108B819C8101969C8366
:1026E0008B8331C089819A81FC013A968081813047
:1026F00091F4EB81FC818081282F30E089E090E02B
:10270000B90140E050E00E94B3108B819C8101969A
:102710009C838B8318C089819A81FC013D968081BE
:10272000813089F4EB81FC818081282F30E080E0CA
:1027300090E0B90140E050E00E94B3108B819C8191
:1027400001969C838B830F900F900F900F90CF91E9
:10275000DF910895DF93CF93CDB7DEB790916801F5
:1027600080E0692F41E00E9492079091690180E02A
:10277000692F41E00E94920790916A0180E0692FE1
:1027800041E00E94920790916B0180E0692F41E047
:102790000E949207CF91DF910895DF93CF93CDB739
:1027A000DEB768970FB6F894DEBF0FBECDBF80E0EE
:1027B00060E040E00E948D080E94870D0E940F0794
:1027C00080E00E944707988F8F8B8F89988DCC016E
:1027D000A0E0B0E0BC01CD010E94A104DC01CB016E
:1027E000BC01CD0120E030E040EA50E40E94170235
:1027F000DC01CB01BC01CD0120E030E040E854E435
:102800000E941103DC01CB018B8B9C8BAD8BBE8BAB
:102810006B897C898D899E8920E030E048EC52E408
:102820000E941702DC01CB018F87988BA98BBA8B92
:102830006B897C898D899E890E944100DC01CB01D6
:10284000BC01CD010E94B31080E090E0AAE7B4E49F
:102850008B879C87AD87BE876B857C858D859E85A4
:1028600020E030E04AEF54E40E941702DC01CB0183
:102870008F839887A987BA876F81788589859A859C
:1028800020E030E040E85FE30E941D0488232CF440
:1028900081E090E09E838D833FC06F81788589853C
:1028A0009A8520E03FEF4FE757E40E94BD031816DA
:1028B0004CF56B857C858D859E8520E030E040E27F
:1028C00051E40E941702DC01CB01BC01CD010E9442
:1028D0004100DC01CB019E838D830FC088EC90E02A
:1028E0009C838B838B819C810197F1F79C838B83E5
:1028F0008D819E8101979E838D838D819E8100971E
:1029000069F714C06F81788589859A850E94410096
:10291000DC01CB019E838D838D819E819A83898387
:1029200089819A810197F1F79A83898381E00E94D6
:10293000B00C46CFA1E21A2EAA1BBB1BFD010DC095
:10294000AA1FBB1FEE1FFF1FA217B307E407F5075F
:1029500020F0A21BB30BE40BF50B661F771F881F3B
:10296000991F1A9469F760957095809590959B01D1
:10297000AC01BD01CF0108952F923F924F925F921B
:102980006F927F928F929F92AF92BF92CF92DF927F
:10299000EF92FF920F931F93CF93DF93CDB7DEB7E4
:1029A000CA1BDB0B0FB6F894DEBF0FBECDBF099478
:1029B0002A88398848885F846E847D848C849B84CF
:1029C000AA84B984C884DF80EE80FD800C811B81DD
:1029D000AA81B981CE0FD11D0FB6F894DEBF0FBE0C
:0A29E000CDBFED010895F894FFCF7C
:1029EA0000000000000000000001020203030303CC
:1029FA000404040404040404050505050505050585
:102A0A000505050505050505060606060606060664
:102A1A00060606060606060606060606060606064C
:102A2A000606060606060606070707070707070734
:102A3A00070707070707070707070707070707071C
:102A4A00070707070707070707070707070707070C
:102A5A0007070707070707070707070707070707FC
:102A6A0007070707070707070808080808080808E4
:102A7A0008080808080808080808080808080808CC
:102A8A0008080808080808080808080808080808BC
:102A9A0008080808080808080808080808080808AC
:102AAA00080808080808080808080808080808089C
:102ABA00080808080808080808080808080808088C
:102ACA00080808080808080808080808080808087C
:102ADA00080808080808080808080808080808086C
:102AEA000808080808080808000102030405060780
:102AFA0004050607000102030102032B43003D2FD0
:082B0A000708092A0405062D45
:00000001FF
