:100000000C942A000C943C000C943C000C943C0092
:100010000C943C000C943C000C943C000C943C0070
:100020000C943C000C943C000C943C000C945F033A
:100030000C943C000C943C000C943C000C943C0050
:100040000C943C000C943C000C943C000C943C0040
:100050000C943C0011241FBECFE5D8E0DEBFCDBF1D
:1000600010E0A0E6B0E001C01D92A736B107E1F7AD
:100070000E949A030C940E040C940000DF93CF931B
:1000800000D000D000D0CDB7DEB78A836B834C831D
:1000900019828A81843018F081E08983E0C08B81E5
:1000A000883018F082E08983DAC08C81882331F0AF
:1000B0008C81813019F083E08983D1C08A81282F17
:1000C00030E03E832D838D819E818130910509F43E
:1000D00043C02D813E81223031052CF48D819E81DB
:1000E000009771F0BCC02D813E812230310509F4AA
:1000F0005FC08D819E818330910509F485C0AFC0BA
:100100008C818130A1F4ABE3B0E0EBE3F0E08081DF
:10011000482F8B81282F30E081E090E0022E02C032
:10012000880F991F0A94E2F7842B8C9398C0ABE355
:10013000B0E0EBE3F0E08081482F8B81282F30E0A6
:1001400081E090E0022E02C0880F991F0A94E2F726
:10015000809584238C9383C08C818130A1F4A8E3A3
:10016000B0E0E8E3F0E08081482F8B81282F30E079
:1001700081E090E0022E02C0880F991F0A94E2F7F6
:10018000842B8C936CC0A8E3B0E0E8E3F0E08081BE
:10019000482F8B81282F30E081E090E0022E02C0B2
:1001A000880F991F0A94E2F7809584238C9357C097
:1001B0008C818130A1F4A5E3B0E0E5E3F0E080813B
:1001C000482F8B81282F30E081E090E0022E02C082
:1001D000880F991F0A94E2F7842B8C9340C0A5E303
:1001E000B0E0E5E3F0E08081482F8B81282F30E0FC
:1001F00081E090E0022E02C0880F991F0A94E2F776
:10020000809584238C932BC08C818130A1F4A2E350
:10021000B0E0E2E3F0E08081482F8B81282F30E0CE
:1002200081E090E0022E02C0880F991F0A94E2F745
:10023000842B8C9314C0A2E3B0E0E2E3F0E0808171
:10024000482F8B81282F30E081E090E0022E02C001
:10025000880F991F0A94E2F7809584238C938981F3
:1002600026960FB6F894DEBF0FBECDBFCF91DF91BB
:100270000895DF93CF9300D000D000D0CDB7DEB784
:100280008A836B834C8319828A81843018F081E0E1
:100290008983E0C08B81883018F082E08983DAC0DE
:1002A0008C81882331F08C81813019F083E089833F
:1002B000D1C08A81282F30E03E832D838D819E819D
:1002C0008130910509F443C02D813E8122303105F2
:1002D0002CF48D819E81009771F0BCC02D813E81F0
:1002E0002230310509F45FC08D819E8183309105F4
:1002F00009F485C0AFC08C818130A1F4AAE3B0E0DD
:10030000EAE3F0E08081482F8B81282F30E081E004
:1003100090E0022E02C0880F991F0A94E2F7842B06
:100320008C9398C0AAE3B0E0EAE3F0E08081482F24
:100330008B81282F30E081E090E0022E02C0880FF0
:10034000991F0A94E2F7809584238C9383C08C8153
:100350008130A1F4A7E3B0E0E7E3F0E08081482F2B
:100360008B81282F30E081E090E0022E02C0880FC0
:10037000991F0A94E2F7842B8C936CC0A7E3B0E03A
:10038000E7E3F0E08081482F8B81282F30E081E087
:1003900090E0022E02C0880F991F0A94E2F7809520
:1003A00084238C9357C08C818130A1F4A4E3B0E006
:1003B000E4E3F0E08081482F8B81282F30E081E05A
:1003C00090E0022E02C0880F991F0A94E2F7842B56
:1003D0008C9340C0A4E3B0E0E4E3F0E08081482FD8
:1003E0008B81282F30E081E090E0022E02C0880F40
:1003F000991F0A94E2F7809584238C932BC08C81FB
:100400008130A1F4A1E3B0E0E1E3F0E08081482F86
:100410008B81282F30E081E090E0022E02C0880F0F
:10042000991F0A94E2F7842B8C9314C0A1E3B0E0E7
:10043000E1E3F0E08081482F8B81282F30E081E0DC
:1004400090E0022E02C0880F991F0A94E2F780956F
:1004500084238C93898126960FB6F894DEBF0FBE55
:10046000CDBFCF91DF910895DF93CF93CDB7DEB7A6
:1004700027970FB6F894DEBF0FBECDBF8A836B837C
:100480005D834C8319828A81843018F081E08983EE
:1004900076C08B81883018F082E0898370C08A81B1
:1004A000282F30E03F832E834E815F8141305105FC
:1004B00059F18E819F818230910534F42E813F81E4
:1004C0002115310569F05BC04E815F8142305105D5
:1004D00079F18E819F818330910509F43DC04FC031
:1004E000E9E3F0E08081282F30E08B81882F90E0D5
:1004F000A90102C0559547958A95E2F7CA01817016
:10050000EC81FD8180833BC0E6E3F0E08081282F11
:1005100030E08B81882F90E0A90102C05595479566
:100520008A95E2F7CA018170EC81FD81808327C042
:10053000E3E3F0E08081282F30E08B81882F90E08A
:10054000A90102C0559547958A95E2F7CA018170C5
:10055000EC81FD81808313C0E0E3F0E08081282FEF
:1005600030E08B81882F90E0A90102C05595479516
:100570008A95E2F7CA018170EC81FD8180838981CF
:1005800027960FB6F894DEBF0FBECDBFCF91DF9197
:100590000895DF93CF9300D000D00F92CDB7DEB790
:1005A0008A836B8319828A81843018F081E0898381
:1005B00032C08A81282F30E03D832C838C819D813D
:1005C00081309105D1F02C813D81223031052CF410
:1005D0008C819D81009761F01EC02C813D8122306D
:1005E000310581F08C819D818330910581F013C0AC
:1005F000EBE3F0E08B8180830EC0E8E3F0E08B81D9
:10060000808309C0E5E3F0E08B81808304C0E2E3EE
:10061000F0E08B81808389810F900F900F900F9075
:100620000F90CF91DF910895DF93CF9300D000D04A
:100630000F92CDB7DEB78A836B8319828A818430AB
:1006400018F081E0898332C08A81282F30E03D8311
:100650002C838C819D8181309105D1F02C813D814D
:10066000223031052CF48C819D81009761F01EC0F1
:100670002C813D812230310581F08C819D81833038
:10068000910581F013C0EAE3F0E08B8180830EC016
:10069000E7E3F0E08B81808309C0E4E3F0E08B8145
:1006A000808304C0E1E3F0E08B81808389810F9037
:1006B0000F900F900F900F90CF91DF9108951F92A0
:1006C0000F920FB60F9211242F938F939F93EF9356
:1006D000FF93DF93CF93CDB7DEB780916200909107
:1006E00063000196909363008093620080916200A2
:1006F000909163002FE08334920781F4109263009D
:1007000010926200E2E5F0E080EC8083809160006E
:100710008F5F8093600081E080936100CF91DF91D3
:10072000FF91EF919F918F912F910F900FBE0F909E
:100730001F901895DF93CF93CDB7DEB783E060E0CD
:1007400041E00E94390183E061E041E00E9439010B
:1007500083E062E041E00E943901E3E5F0E082E0FD
:100760008083E2E5F0E080EC8083A9E5B0E0E9E594
:10077000F0E0808181608C93AFE5B0E0EFE5F0E0E0
:10078000808180688C93809161008130E1F7909145
:10079000660081E08927809366009091660083E07F
:1007A00060E0492F0E943E0080916000882F90E019
:1007B00081709070009769F49091650081E08927BD
:1007C000809365009091650083E061E0492F0E946D
:1007D0003E008091600093E0692F0E940204892FFF
:1007E000882369F49091640081E0892780936400F4
:1007F0009091640083E062E0492F0E943E001092D5
:100800006100C1CF991B79E004C0991F961708F0C9
:10081000961B881F7A95C9F780950895F894FFCFA5
:00000001FF
