:100000000C942A000C947B040C94A8040C94D50442
:100010000C943C000C943C000C943C000C943C0070
:100020000C943C000C943C000C943C000C943C0060
:100030000C943C000C943C000C943C000C943C0050
:100040000C943C000C943C000C943C000C943C0040
:100050000C943C0011241FBECFE5D8E0DEBFCDBF1D
:1000600010E0A0E6B0E001C01D92A736B107E1F7AD
:100070000E9434050C9458050C940000DF93CF9334
:1000800000D000D000D0CDB7DEB78A836B834C831D
:1000900019828A81843018F081E08983E0C08B81E5
:1000A000883018F082E08983DAC08C81882331F0AF
:1000B0008C81813019F083E08983D1C08A81282F17
:1000C00030E03E832D838D819E818130910509F43E
:1000D00043C02D813E81223031052CF48D819E81DB
:1000E000009771F0BCC02D813E812230310509F4AA
:1000F0005FC08D819E818330910509F485C0AFC0BA
:100100008C818130A1F4ABE3B0E0EBE3F0E08081DF
:10011000482F8B81282F30E081E090E0022E02C032
:10012000880F991F0A94E2F7842B8C9398C0ABE355
:10013000B0E0EBE3F0E08081482F8B81282F30E0A6
:1001400081E090E0022E02C0880F991F0A94E2F726
:10015000809584238C9383C08C818130A1F4A8E3A3
:10016000B0E0E8E3F0E08081482F8B81282F30E079
:1001700081E090E0022E02C0880F991F0A94E2F7F6
:10018000842B8C936CC0A8E3B0E0E8E3F0E08081BE
:10019000482F8B81282F30E081E090E0022E02C0B2
:1001A000880F991F0A94E2F7809584238C9357C097
:1001B0008C818130A1F4A5E3B0E0E5E3F0E080813B
:1001C000482F8B81282F30E081E090E0022E02C082
:1001D000880F991F0A94E2F7842B8C9340C0A5E303
:1001E000B0E0E5E3F0E08081482F8B81282F30E0FC
:1001F00081E090E0022E02C0880F991F0A94E2F776
:10020000809584238C932BC08C818130A1F4A2E350
:10021000B0E0E2E3F0E08081482F8B81282F30E0CE
:1002200081E090E0022E02C0880F991F0A94E2F745
:10023000842B8C9314C0A2E3B0E0E2E3F0E0808171
:10024000482F8B81282F30E081E090E0022E02C001
:10025000880F991F0A94E2F7809584238C938981F3
:1002600026960FB6F894DEBF0FBECDBFCF91DF91BB
:100270000895DF93CF9300D000D000D0CDB7DEB784
:100280008A836B834C8319828A81843018F081E0E1
:100290008983E0C08B81883018F082E08983DAC0DE
:1002A0008C81882331F08C81813019F083E089833F
:1002B000D1C08A81282F30E03E832D838D819E819D
:1002C0008130910509F443C02D813E8122303105F2
:1002D0002CF48D819E81009771F0BCC02D813E81F0
:1002E0002230310509F45FC08D819E8183309105F4
:1002F00009F485C0AFC08C818130A1F4AAE3B0E0DD
:10030000EAE3F0E08081482F8B81282F30E081E004
:1003100090E0022E02C0880F991F0A94E2F7842B06
:100320008C9398C0AAE3B0E0EAE3F0E08081482F24
:100330008B81282F30E081E090E0022E02C0880FF0
:10034000991F0A94E2F7809584238C9383C08C8153
:100350008130A1F4A7E3B0E0E7E3F0E08081482F2B
:100360008B81282F30E081E090E0022E02C0880FC0
:10037000991F0A94E2F7842B8C936CC0A7E3B0E03A
:10038000E7E3F0E08081482F8B81282F30E081E087
:1003900090E0022E02C0880F991F0A94E2F7809520
:1003A00084238C9357C08C818130A1F4A4E3B0E006
:1003B000E4E3F0E08081482F8B81282F30E081E05A
:1003C00090E0022E02C0880F991F0A94E2F7842B56
:1003D0008C9340C0A4E3B0E0E4E3F0E08081482FD8
:1003E0008B81282F30E081E090E0022E02C0880F40
:1003F000991F0A94E2F7809584238C932BC08C81FB
:100400008130A1F4A1E3B0E0E1E3F0E08081482F86
:100410008B81282F30E081E090E0022E02C0880F0F
:10042000991F0A94E2F7842B8C9314C0A1E3B0E0E7
:10043000E1E3F0E08081482F8B81282F30E081E0DC
:1004400090E0022E02C0880F991F0A94E2F780956F
:1004500084238C93898126960FB6F894DEBF0FBE55
:10046000CDBFCF91DF910895DF93CF93CDB7DEB7A6
:1004700027970FB6F894DEBF0FBECDBF8A836B837C
:100480005D834C8319828A81843018F081E08983EE
:1004900076C08B81883018F082E0898370C08A81B1
:1004A000282F30E03F832E834E815F8141305105FC
:1004B00059F18E819F818230910534F42E813F81E4
:1004C0002115310569F05BC04E815F8142305105D5
:1004D00079F18E819F818330910509F43DC04FC031
:1004E000E9E3F0E08081282F30E08B81882F90E0D5
:1004F000A90102C0559547958A95E2F7CA01817016
:10050000EC81FD8180833BC0E6E3F0E08081282F11
:1005100030E08B81882F90E0A90102C05595479566
:100520008A95E2F7CA018170EC81FD81808327C042
:10053000E3E3F0E08081282F30E08B81882F90E08A
:10054000A90102C0559547958A95E2F7CA018170C5
:10055000EC81FD81808313C0E0E3F0E08081282FEF
:1005600030E08B81882F90E0A90102C05595479516
:100570008A95E2F7CA018170EC81FD8180838981CF
:1005800027960FB6F894DEBF0FBECDBFCF91DF9197
:100590000895DF93CF9300D000D00F92CDB7DEB790
:1005A0008A836B8319828A81843018F081E0898381
:1005B00032C08A81282F30E03D832C838C819D813D
:1005C00081309105D1F02C813D81223031052CF410
:1005D0008C819D81009761F01EC02C813D8122306D
:1005E000310581F08C819D818330910581F013C0AC
:1005F000EBE3F0E08B8180830EC0E8E3F0E08B81D9
:10060000808309C0E5E3F0E08B81808304C0E2E3EE
:10061000F0E08B81808389810F900F900F900F9075
:100620000F90CF91DF910895DF93CF9300D000D04A
:100630000F92CDB7DEB78A836B8319828A818430AB
:1006400018F081E0898332C08A81282F30E03D8311
:100650002C838C819D8181309105D1F02C813D814D
:10066000223031052CF48C819D81009761F01EC0F1
:100670002C813D812230310581F08C819D81833038
:10068000910581F013C0EAE3F0E08B8180830EC016
:10069000E7E3F0E08B81808309C0E4E3F0E08B8145
:1006A000808304C0E1E3F0E08B81808389810F9037
:1006B0000F900F900F900F90CF91DF910895DF93DF
:1006C000CF9300D00F92CDB7DEB789838981282FD1
:1006D00030E03B832A838A819B818130910589F0B8
:1006E0002A813B8122303105A1F08A819B810097CC
:1006F000B9F4ABE5B0E0EBE5F0E0808180648C9389
:100700000FC0ABE5B0E0EBE5F0E0808180688C9352
:1007100007C0ABE5B0E0EBE5F0E0808180628C9350
:100720000F900F900F90CF91DF910895DF93CF93AB
:1007300000D00F92CDB7DEB789838981282F30E0B2
:100740003B832A838A819B818130910589F02A81AC
:100750003B8122303105A1F08A819B810097B9F459
:10076000ABE5B0E0EBE5F0E080818F7B8C930FC0D0
:10077000ABE5B0E0EBE5F0E080818F778C9307C0CC
:10078000ABE5B0E0EBE5F0E080818F7D8C930F90DE
:100790000F900F90CF91DF910895DF93CF9300D00A
:1007A00000D0CDB7DEB789836A838981282F30E0F6
:1007B0003C832B838B819C8181309105C9F12B81F6
:1007C0003C812230310509F461C08B819C81009706
:1007D00009F06EC08A81882F90E081709070882324
:1007E00041F0A5E5B0E0E5E5F0E0808181608C9323
:1007F00007C0A5E5B0E0E5E5F0E080818E7F8C9351
:100800008A818695882F90E081709070882341F0CE
:10081000A5E5B0E0E5E5F0E0808182608C9348C01A
:10082000A5E5B0E0E5E5F0E080818D7F8C9340C0E8
:100830008A81882F90E081709070882341F0A5E52F
:10084000B0E0E5E5F0E0808184608C9307C0A5E529
:10085000B0E0E5E5F0E080818B7F8C938A8186951E
:10086000882F90E081709070882341F0A5E5B0E07A
:10087000E5E5F0E0808188608C931AC0A5E5B0E0E2
:10088000E5E5F0E08081877F8C9312C08A8181301A
:1008900041F4A4E5B0E0E4E5F0E0808180648C936D
:1008A00007C0A4E5B0E0E4E5F0E080818F7B8C93A5
:1008B0000F900F900F900F90CF91DF910895DF93DD
:1008C000CF930F92CDB7DEB789838981813041F410
:1008D000AFE5B0E0EFE5F0E0808180688C9307C081
:1008E000AFE5B0E0EFE5F0E080818F778C930F907B
:1008F000CF91DF9108951F920F920FB60F9211249E
:100900002F933F934F935F936F937F938F939F9317
:10091000AF93BF93EF93FF93DF93CF93CDB7DEB742
:10092000E0916100F09162000995CF91DF91FF9114
:10093000EF91BF91AF919F918F917F916F915F9157
:100940004F913F912F910F900FBE0F901F901895D0
:100950001F920F920FB60F9211242F933F934F9334
:100960005F936F937F938F939F93AF93BF93EF9317
:10097000FF93DF93CF93CDB7DEB7E0916300F091A3
:1009800064000995CF91DF91FF91EF91BF91AF91F5
:100990009F918F917F916F915F914F913F912F9197
:1009A0000F900FBE0F901F9018951F920F920FB6C9
:1009B0000F9211242F933F934F935F936F937F93E5
:1009C0008F939F93AF93BF93EF93FF93DF93CF9357
:1009D000CDB7DEB7E0916500F09166000995CF9143
:1009E000DF91FF91EF91BF91AF919F918F917F9197
:1009F0006F915F914F913F912F910F900FBE0F908C
:100A00001F901895DF93CF9300D000D00F92CDB7F1
:100A1000DEB789837B836A838981882F90E0880F82
:100A2000991FFC01EF59FF4F8A819B81918380833D
:100A30000F900F900F900F900F90CF91DF9108952E
:100A4000DF93CF93CDB7DEB79091600081E0892727
:100A5000809360009091600081E067E0492F0E94E0
:100A60003E00CF91DF910895DF93CF93CDB7DEB7EE
:100A700081E067E041E00E94390183E062E040E00C
:100A80000E94390183E062E041E00E943E0080E084
:100A900062E00E94CD0320E235E080E0B9010E94CF
:100AA000020580E00E945F0381E00E945F04FFCFA7
:040AB000F894FFCFE8
:00000001FF
